{
  "contractName": "HealthBlock",
  "abi": [
    {
      "constant": true,
      "inputs": [
        {
          "internalType": "address",
          "name": "",
          "type": "address"
        },
        {
          "internalType": "uint256",
          "name": "",
          "type": "uint256"
        }
      ],
      "name": "accessList",
      "outputs": [
        {
          "internalType": "address",
          "name": "",
          "type": "address"
        }
      ],
      "payable": false,
      "stateMutability": "view",
      "type": "function"
    },
    {
      "constant": true,
      "inputs": [
        {
          "internalType": "uint256",
          "name": "",
          "type": "uint256"
        }
      ],
      "name": "doctors",
      "outputs": [
        {
          "internalType": "address",
          "name": "",
          "type": "address"
        }
      ],
      "payable": false,
      "stateMutability": "view",
      "type": "function"
    },
    {
      "constant": true,
      "inputs": [
        {
          "internalType": "address",
          "name": "",
          "type": "address"
        },
        {
          "internalType": "uint256",
          "name": "",
          "type": "uint256"
        }
      ],
      "name": "entityHasAccessTo",
      "outputs": [
        {
          "internalType": "address",
          "name": "",
          "type": "address"
        }
      ],
      "payable": false,
      "stateMutability": "view",
      "type": "function"
    },
    {
      "constant": true,
      "inputs": [
        {
          "internalType": "uint256",
          "name": "",
          "type": "uint256"
        }
      ],
      "name": "institutions",
      "outputs": [
        {
          "internalType": "address",
          "name": "institutionAddress",
          "type": "address"
        },
        {
          "internalType": "string",
          "name": "name",
          "type": "string"
        },
        {
          "internalType": "string",
          "name": "link",
          "type": "string"
        }
      ],
      "payable": false,
      "stateMutability": "view",
      "type": "function"
    },
    {
      "constant": true,
      "inputs": [
        {
          "internalType": "address",
          "name": "",
          "type": "address"
        }
      ],
      "name": "isDoctor",
      "outputs": [
        {
          "internalType": "bool",
          "name": "",
          "type": "bool"
        }
      ],
      "payable": false,
      "stateMutability": "view",
      "type": "function"
    },
    {
      "constant": true,
      "inputs": [
        {
          "internalType": "address",
          "name": "",
          "type": "address"
        }
      ],
      "name": "isInstitution",
      "outputs": [
        {
          "internalType": "bool",
          "name": "",
          "type": "bool"
        }
      ],
      "payable": false,
      "stateMutability": "view",
      "type": "function"
    },
    {
      "constant": true,
      "inputs": [
        {
          "internalType": "address",
          "name": "",
          "type": "address"
        }
      ],
      "name": "isPatient",
      "outputs": [
        {
          "internalType": "bool",
          "name": "",
          "type": "bool"
        }
      ],
      "payable": false,
      "stateMutability": "view",
      "type": "function"
    },
    {
      "constant": true,
      "inputs": [],
      "name": "name",
      "outputs": [
        {
          "internalType": "string",
          "name": "",
          "type": "string"
        }
      ],
      "payable": false,
      "stateMutability": "view",
      "type": "function"
    },
    {
      "constant": true,
      "inputs": [
        {
          "internalType": "uint256",
          "name": "",
          "type": "uint256"
        }
      ],
      "name": "patients",
      "outputs": [
        {
          "internalType": "address",
          "name": "",
          "type": "address"
        }
      ],
      "payable": false,
      "stateMutability": "view",
      "type": "function"
    },
    {
      "constant": true,
      "inputs": [
        {
          "internalType": "address",
          "name": "",
          "type": "address"
        },
        {
          "internalType": "uint256",
          "name": "",
          "type": "uint256"
        }
      ],
      "name": "records",
      "outputs": [
        {
          "internalType": "address",
          "name": "institution",
          "type": "address"
        },
        {
          "internalType": "address",
          "name": "doctor",
          "type": "address"
        },
        {
          "internalType": "address",
          "name": "patient",
          "type": "address"
        },
        {
          "internalType": "string",
          "name": "timestamp",
          "type": "string"
        },
        {
          "internalType": "string",
          "name": "link",
          "type": "string"
        }
      ],
      "payable": false,
      "stateMutability": "view",
      "type": "function"
    },
    {
      "constant": false,
      "inputs": [],
      "name": "registerPatient",
      "outputs": [],
      "payable": false,
      "stateMutability": "nonpayable",
      "type": "function"
    },
    {
      "constant": false,
      "inputs": [
        {
          "internalType": "string",
          "name": "_name",
          "type": "string"
        },
        {
          "internalType": "string",
          "name": "link",
          "type": "string"
        }
      ],
      "name": "registerInstitution",
      "outputs": [],
      "payable": false,
      "stateMutability": "nonpayable",
      "type": "function"
    },
    {
      "constant": false,
      "inputs": [],
      "name": "registerDoctor",
      "outputs": [],
      "payable": false,
      "stateMutability": "nonpayable",
      "type": "function"
    },
    {
      "constant": false,
      "inputs": [
        {
          "internalType": "address",
          "name": "patient",
          "type": "address"
        },
        {
          "internalType": "address",
          "name": "doctor",
          "type": "address"
        },
        {
          "internalType": "string",
          "name": "timestamp",
          "type": "string"
        },
        {
          "internalType": "string",
          "name": "link",
          "type": "string"
        }
      ],
      "name": "addRecord",
      "outputs": [],
      "payable": false,
      "stateMutability": "nonpayable",
      "type": "function"
    },
    {
      "constant": false,
      "inputs": [
        {
          "internalType": "address",
          "name": "entity",
          "type": "address"
        }
      ],
      "name": "shareRecords",
      "outputs": [],
      "payable": false,
      "stateMutability": "nonpayable",
      "type": "function"
    },
    {
      "constant": true,
      "inputs": [
        {
          "internalType": "address",
          "name": "patient",
          "type": "address"
        }
      ],
      "name": "getRecords",
      "outputs": [
        {
          "components": [
            {
              "internalType": "address",
              "name": "institution",
              "type": "address"
            },
            {
              "internalType": "address",
              "name": "doctor",
              "type": "address"
            },
            {
              "internalType": "address",
              "name": "patient",
              "type": "address"
            },
            {
              "internalType": "string",
              "name": "timestamp",
              "type": "string"
            },
            {
              "internalType": "string",
              "name": "link",
              "type": "string"
            }
          ],
          "internalType": "struct HealthBlock.Record[]",
          "name": "",
          "type": "tuple[]"
        }
      ],
      "payable": false,
      "stateMutability": "view",
      "type": "function"
    },
    {
      "constant": true,
      "inputs": [],
      "name": "getAllRecords",
      "outputs": [
        {
          "components": [
            {
              "internalType": "address",
              "name": "institution",
              "type": "address"
            },
            {
              "internalType": "address",
              "name": "doctor",
              "type": "address"
            },
            {
              "internalType": "address",
              "name": "patient",
              "type": "address"
            },
            {
              "internalType": "string",
              "name": "timestamp",
              "type": "string"
            },
            {
              "internalType": "string",
              "name": "link",
              "type": "string"
            }
          ],
          "internalType": "struct HealthBlock.Record[]",
          "name": "",
          "type": "tuple[]"
        }
      ],
      "payable": false,
      "stateMutability": "view",
      "type": "function"
    }
  ],
  "bytecode": "0x60806040526040518060400160405280600b81526020017f4865616c7468426c6f636b000000000000000000000000000000000000000000815250600090805190602001906200005192919062000066565b503480156200005f57600080fd5b5062000115565b828054600181600116156101000203166002900490600052602060002090601f016020900481019282601f10620000a957805160ff1916838001178555620000da565b82800160010185558215620000da579182015b82811115620000d9578251825591602001919060010190620000bc565b5b509050620000e99190620000ed565b5090565b6200011291905b808211156200010e576000816000905550600101620000f4565b5090565b90565b612a8280620001256000396000f3fe608060405234801561001057600080fd5b506004361061010b5760003560e01c8063822d3885116100a2578063996440c611610071578063996440c6146102ce578063a0076e84146102fe578063a7f9fe721461032e578063c3b59d001461034c578063c6b5c5cc1461037e5761010b565b8063822d38851461023057806382a6c0ac1461023a5780638f9c79ed1461026e57806393119a831461029e5761010b565b806338d0cd9d116100de57806338d0cd9d146101985780636efb1b84146101b457806370c2b419146101e45780637e14f234146102145761010b565b80630331df071461011057806306fdde03146101405780631a1984de1461015e57806328e839f714610168575b600080fd5b61012a600480360361012591908101906121d9565b61039a565b60405161013791906127ba565b60405180910390f35b6101486103ba565b60405161015591906127d5565b60405180910390f35b610166610458565b005b610182600480360361017d9190810190612295565b6105c2565b60405161018f91906126d7565b60405180910390f35b6101b260048036036101ad9190810190612202565b61060d565b005b6101ce60048036036101c9919081019061233d565b61099c565b6040516101db91906126d7565b60405180910390f35b6101fe60048036036101f99190810190612295565b6109d8565b60405161020b91906126d7565b60405180910390f35b61022e600480360361022991908101906121d9565b610a23565b005b610238610e1e565b005b610254600480360361024f9190810190612295565b610f88565b6040516102659594939291906126f2565b60405180910390f35b610288600480360361028391908101906121d9565b611168565b60405161029591906127ba565b60405180910390f35b6102b860048036036102b3919081019061233d565b611188565b6040516102c591906126d7565b60405180910390f35b6102e860048036036102e391908101906121d9565b6111c4565b6040516102f591906127ba565b60405180910390f35b610318600480360361031391908101906121d9565b6111e4565b6040516103259190612798565b60405180910390f35b6103366116e3565b6040516103439190612798565b60405180910390f35b6103666004803603610361919081019061233d565b611c80565b60405161037593929190612753565b60405180910390f35b610398600480360361039391908101906122d1565b611e07565b005b60046020528060005260406000206000915054906101000a900460ff1681565b60008054600181600116156101000203166002900480601f0160208091040260200160405190810160405280929190818152602001828054600181600116156101000203166002900480156104505780601f1061042557610100808354040283529160200191610450565b820191906000526020600020905b81548152906001019060200180831161043357829003601f168201915b505050505081565b600460003373ffffffffffffffffffffffffffffffffffffffff1673ffffffffffffffffffffffffffffffffffffffff16815260200190815260200160002060009054906101000a900460ff161580156104fc5750600660003373ffffffffffffffffffffffffffffffffffffffff1673ffffffffffffffffffffffffffffffffffffffff16815260200190815260200160002060009054906101000a900460ff16155b156105c0576001600660003373ffffffffffffffffffffffffffffffffffffffff1673ffffffffffffffffffffffffffffffffffffffff16815260200190815260200160002060006101000a81548160ff02191690831515021790555060033390806001815401808255809150509060018203906000526020600020016000909192909190916101000a81548173ffffffffffffffffffffffffffffffffffffffff021916908373ffffffffffffffffffffffffffffffffffffffff160217905550505b565b600960205281600052604060002081815481106105db57fe5b906000526020600020016000915091509054906101000a900473ffffffffffffffffffffffffffffffffffffffff1681565b600460003373ffffffffffffffffffffffffffffffffffffffff1673ffffffffffffffffffffffffffffffffffffffff16815260200190815260200160002060009054906101000a900460ff16610699576040517f08c379a000000000000000000000000000000000000000000000000000000000815260040161069090612837565b60405180910390fd5b600560008573ffffffffffffffffffffffffffffffffffffffff1673ffffffffffffffffffffffffffffffffffffffff16815260200190815260200160002060009054906101000a900460ff16610725576040517f08c379a000000000000000000000000000000000000000000000000000000000815260040161071c90612857565b60405180910390fd5b600660008473ffffffffffffffffffffffffffffffffffffffff1673ffffffffffffffffffffffffffffffffffffffff16815260200190815260200160002060009054906101000a900460ff166107b1576040517f08c379a00000000000000000000000000000000000000000000000000000000081526004016107a890612897565b60405180910390fd5b600860008573ffffffffffffffffffffffffffffffffffffffff1673ffffffffffffffffffffffffffffffffffffffff1681526020019081526020016000206040518060a001604052803373ffffffffffffffffffffffffffffffffffffffff1681526020018573ffffffffffffffffffffffffffffffffffffffff1681526020018673ffffffffffffffffffffffffffffffffffffffff168152602001848152602001838152509080600181540180825580915050906001820390600052602060002090600502016000909192909190915060008201518160000160006101000a81548173ffffffffffffffffffffffffffffffffffffffff021916908373ffffffffffffffffffffffffffffffffffffffff16021790555060208201518160010160006101000a81548173ffffffffffffffffffffffffffffffffffffffff021916908373ffffffffffffffffffffffffffffffffffffffff16021790555060408201518160020160006101000a81548173ffffffffffffffffffffffffffffffffffffffff021916908373ffffffffffffffffffffffffffffffffffffffff1602179055506060820151816003019080519060200190610975929190612045565b506080820151816004019080519060200190610992929190612045565b5050505050505050565b600381815481106109a957fe5b906000526020600020016000915054906101000a900473ffffffffffffffffffffffffffffffffffffffff1681565b600760205281600052604060002081815481106109f157fe5b906000526020600020016000915091509054906101000a900473ffffffffffffffffffffffffffffffffffffffff1681565b600560003373ffffffffffffffffffffffffffffffffffffffff1673ffffffffffffffffffffffffffffffffffffffff16815260200190815260200160002060009054906101000a900460ff16610aaf576040517f08c379a0000000000000000000000000000000000000000000000000000000008152600401610aa6906127f7565b60405180910390fd5b600460008273ffffffffffffffffffffffffffffffffffffffff1673ffffffffffffffffffffffffffffffffffffffff16815260200190815260200160002060009054906101000a900460ff1680610b505750600660008273ffffffffffffffffffffffffffffffffffffffff1673ffffffffffffffffffffffffffffffffffffffff16815260200190815260200160002060009054906101000a900460ff165b610b8f576040517f08c379a0000000000000000000000000000000000000000000000000000000008152600401610b8690612877565b60405180910390fd5b6060600760003373ffffffffffffffffffffffffffffffffffffffff1673ffffffffffffffffffffffffffffffffffffffff168152602001908152602001600020805480602002602001604051908101604052809291908181526020018280548015610c5057602002820191906000526020600020905b8160009054906101000a900473ffffffffffffffffffffffffffffffffffffffff1673ffffffffffffffffffffffffffffffffffffffff1681526020019060010190808311610c06575b50505050509050600080905060008090505b8251811015610cc4578373ffffffffffffffffffffffffffffffffffffffff16838281518110610c8e57fe5b602002602001015173ffffffffffffffffffffffffffffffffffffffff161415610cb757600191505b8080600101915050610c62565b50600015158115151415610e1957600760003373ffffffffffffffffffffffffffffffffffffffff1673ffffffffffffffffffffffffffffffffffffffff1681526020019081526020016000208390806001815401808255809150509060018203906000526020600020016000909192909190916101000a81548173ffffffffffffffffffffffffffffffffffffffff021916908373ffffffffffffffffffffffffffffffffffffffff16021790555050600960008473ffffffffffffffffffffffffffffffffffffffff1673ffffffffffffffffffffffffffffffffffffffff1681526020019081526020016000203390806001815401808255809150509060018203906000526020600020016000909192909190916101000a81548173ffffffffffffffffffffffffffffffffffffffff021916908373ffffffffffffffffffffffffffffffffffffffff160217905550505b505050565b600460003373ffffffffffffffffffffffffffffffffffffffff1673ffffffffffffffffffffffffffffffffffffffff16815260200190815260200160002060009054906101000a900460ff16158015610ec25750600560003373ffffffffffffffffffffffffffffffffffffffff1673ffffffffffffffffffffffffffffffffffffffff16815260200190815260200160002060009054906101000a900460ff16155b15610f86576001600560003373ffffffffffffffffffffffffffffffffffffffff1673ffffffffffffffffffffffffffffffffffffffff16815260200190815260200160002060006101000a81548160ff02191690831515021790555060023390806001815401808255809150509060018203906000526020600020016000909192909190916101000a81548173ffffffffffffffffffffffffffffffffffffffff021916908373ffffffffffffffffffffffffffffffffffffffff160217905550505b565b60086020528160005260406000208181548110610fa157fe5b9060005260206000209060050201600091509150508060000160009054906101000a900473ffffffffffffffffffffffffffffffffffffffff16908060010160009054906101000a900473ffffffffffffffffffffffffffffffffffffffff16908060020160009054906101000a900473ffffffffffffffffffffffffffffffffffffffff1690806003018054600181600116156101000203166002900480601f0160208091040260200160405190810160405280929190818152602001828054600181600116156101000203166002900480156110c05780601f10611095576101008083540402835291602001916110c0565b820191906000526020600020905b8154815290600101906020018083116110a357829003601f168201915b505050505090806004018054600181600116156101000203166002900480601f01602080910402602001604051908101604052809291908181526020018280546001816001161561010002031660029004801561115e5780601f106111335761010080835404028352916020019161115e565b820191906000526020600020905b81548152906001019060200180831161114157829003601f168201915b5050505050905085565b60056020528060005260406000206000915054906101000a900460ff1681565b6002818154811061119557fe5b906000526020600020016000915054906101000a900473ffffffffffffffffffffffffffffffffffffffff1681565b60066020528060005260406000206000915054906101000a900460ff1681565b6060600460003373ffffffffffffffffffffffffffffffffffffffff1673ffffffffffffffffffffffffffffffffffffffff16815260200190815260200160002060009054906101000a900460ff16806112875750600660003373ffffffffffffffffffffffffffffffffffffffff1673ffffffffffffffffffffffffffffffffffffffff16815260200190815260200160002060009054906101000a900460ff165b6112c6576040517f08c379a00000000000000000000000000000000000000000000000000000000081526004016112bd90612817565b60405180910390fd5b6060600760008473ffffffffffffffffffffffffffffffffffffffff1673ffffffffffffffffffffffffffffffffffffffff16815260200190815260200160002080548060200260200160405190810160405280929190818152602001828054801561138757602002820191906000526020600020905b8160009054906101000a900473ffffffffffffffffffffffffffffffffffffffff1673ffffffffffffffffffffffffffffffffffffffff168152602001906001019080831161133d575b5050505050905060008090505b81518110156116d5573373ffffffffffffffffffffffffffffffffffffffff168282815181106113c057fe5b602002602001015173ffffffffffffffffffffffffffffffffffffffff1614156116c857600860008573ffffffffffffffffffffffffffffffffffffffff1673ffffffffffffffffffffffffffffffffffffffff168152602001908152602001600020805480602002602001604051908101604052809291908181526020016000905b828210156116bb57838290600052602060002090600502016040518060a00160405290816000820160009054906101000a900473ffffffffffffffffffffffffffffffffffffffff1673ffffffffffffffffffffffffffffffffffffffff1673ffffffffffffffffffffffffffffffffffffffff1681526020016001820160009054906101000a900473ffffffffffffffffffffffffffffffffffffffff1673ffffffffffffffffffffffffffffffffffffffff1673ffffffffffffffffffffffffffffffffffffffff1681526020016002820160009054906101000a900473ffffffffffffffffffffffffffffffffffffffff1673ffffffffffffffffffffffffffffffffffffffff1673ffffffffffffffffffffffffffffffffffffffff168152602001600382018054600181600116156101000203166002900480601f0160208091040260200160405190810160405280929190818152602001828054600181600116156101000203166002900480156116015780601f106115d657610100808354040283529160200191611601565b820191906000526020600020905b8154815290600101906020018083116115e457829003601f168201915b50505050508152602001600482018054600181600116156101000203166002900480601f0160208091040260200160405190810160405280929190818152602001828054600181600116156101000203166002900480156116a35780601f10611678576101008083540402835291602001916116a3565b820191906000526020600020905b81548152906001019060200180831161168657829003601f168201915b50505050508152505081526020019060010190611443565b50505050925050506116de565b8080600101915050611394565b50606080925050505b919050565b6060600460003373ffffffffffffffffffffffffffffffffffffffff1673ffffffffffffffffffffffffffffffffffffffff16815260200190815260200160002060009054906101000a900460ff16806117865750600660003373ffffffffffffffffffffffffffffffffffffffff1673ffffffffffffffffffffffffffffffffffffffff16815260200190815260200160002060009054906101000a900460ff165b6117c5576040517f08c379a00000000000000000000000000000000000000000000000000000000081526004016117bc90612817565b60405180910390fd5b606080600960003373ffffffffffffffffffffffffffffffffffffffff1673ffffffffffffffffffffffffffffffffffffffff16815260200190815260200160002080548060200260200160405190810160405280929190818152602001828054801561188757602002820191906000526020600020905b8160009054906101000a900473ffffffffffffffffffffffffffffffffffffffff1673ffffffffffffffffffffffffffffffffffffffff168152602001906001019080831161183d575b5050505050905060008090505b8151811015611c77576060600860008484815181106118af57fe5b602002602001015173ffffffffffffffffffffffffffffffffffffffff1673ffffffffffffffffffffffffffffffffffffffff168152602001908152602001600020805480602002602001604051908101604052809291908181526020016000905b82821015611b8957838290600052602060002090600502016040518060a00160405290816000820160009054906101000a900473ffffffffffffffffffffffffffffffffffffffff1673ffffffffffffffffffffffffffffffffffffffff1673ffffffffffffffffffffffffffffffffffffffff1681526020016001820160009054906101000a900473ffffffffffffffffffffffffffffffffffffffff1673ffffffffffffffffffffffffffffffffffffffff1673ffffffffffffffffffffffffffffffffffffffff1681526020016002820160009054906101000a900473ffffffffffffffffffffffffffffffffffffffff1673ffffffffffffffffffffffffffffffffffffffff1673ffffffffffffffffffffffffffffffffffffffff168152602001600382018054600181600116156101000203166002900480601f016020809104026020016040519081016040528092919081815260200182805460018160011615610100020316600290048015611acf5780601f10611aa457610100808354040283529160200191611acf565b820191906000526020600020905b815481529060010190602001808311611ab257829003601f168201915b50505050508152602001600482018054600181600116156101000203166002900480601f016020809104026020016040519081016040528092919081815260200182805460018160011615610100020316600290048015611b715780601f10611b4657610100808354040283529160200191611b71565b820191906000526020600020905b815481529060010190602001808311611b5457829003601f168201915b50505050508152505081526020019060010190611911565b50505050905060608490508151815101604051908082528060200260200182016040528015611bd257816020015b611bbf6120c5565b815260200190600190039081611bb75790505b50945060008090505b8151811015611c1c57818181518110611bf057fe5b6020026020010151868281518110611c0457fe5b60200260200101819052508080600101915050611bdb565b5060008090505b8251811015611c6757828181518110611c3857fe5b6020026020010151868351830181518110611c4f57fe5b60200260200101819052508080600101915050611c23565b5050508080600101915050611894565b50819250505090565b60018181548110611c8d57fe5b90600052602060002090600302016000915090508060000160009054906101000a900473ffffffffffffffffffffffffffffffffffffffff1690806001018054600181600116156101000203166002900480601f016020809104026020016040519081016040528092919081815260200182805460018160011615610100020316600290048015611d5f5780601f10611d3457610100808354040283529160200191611d5f565b820191906000526020600020905b815481529060010190602001808311611d4257829003601f168201915b505050505090806002018054600181600116156101000203166002900480601f016020809104026020016040519081016040528092919081815260200182805460018160011615610100020316600290048015611dfd5780601f10611dd257610100808354040283529160200191611dfd565b820191906000526020600020905b815481529060010190602001808311611de057829003601f168201915b5050505050905083565b600460003373ffffffffffffffffffffffffffffffffffffffff1673ffffffffffffffffffffffffffffffffffffffff16815260200190815260200160002060009054906101000a900460ff16158015611eab5750600560003373ffffffffffffffffffffffffffffffffffffffff1673ffffffffffffffffffffffffffffffffffffffff16815260200190815260200160002060009054906101000a900460ff16155b8015611f015750600660003373ffffffffffffffffffffffffffffffffffffffff1673ffffffffffffffffffffffffffffffffffffffff16815260200190815260200160002060009054906101000a900460ff16155b15612041576001600460003373ffffffffffffffffffffffffffffffffffffffff1673ffffffffffffffffffffffffffffffffffffffff16815260200190815260200160002060006101000a81548160ff021916908315150217905550600160405180606001604052803373ffffffffffffffffffffffffffffffffffffffff168152602001848152602001838152509080600181540180825580915050906001820390600052602060002090600302016000909192909190915060008201518160000160006101000a81548173ffffffffffffffffffffffffffffffffffffffff021916908373ffffffffffffffffffffffffffffffffffffffff160217905550602082015181600101908051906020019061201f929190612045565b50604082015181600201908051906020019061203c929190612045565b505050505b5050565b828054600181600116156101000203166002900490600052602060002090601f016020900481019282601f1061208657805160ff19168380011785556120b4565b828001600101855582156120b4579182015b828111156120b3578251825591602001919060010190612098565b5b5090506120c19190612136565b5090565b6040518060a00160405280600073ffffffffffffffffffffffffffffffffffffffff168152602001600073ffffffffffffffffffffffffffffffffffffffff168152602001600073ffffffffffffffffffffffffffffffffffffffff16815260200160608152602001606081525090565b61215891905b8082111561215457600081600090555060010161213c565b5090565b90565b60008135905061216a81612a11565b92915050565b600082601f83011261218157600080fd5b813561219461218f826128e4565b6128b7565b915080825260208301602083018583830111156121b057600080fd5b6121bb8382846129be565b50505092915050565b6000813590506121d381612a28565b92915050565b6000602082840312156121eb57600080fd5b60006121f98482850161215b565b91505092915050565b6000806000806080858703121561221857600080fd5b60006122268782880161215b565b94505060206122378782880161215b565b935050604085013567ffffffffffffffff81111561225457600080fd5b61226087828801612170565b925050606085013567ffffffffffffffff81111561227d57600080fd5b61228987828801612170565b91505092959194509250565b600080604083850312156122a857600080fd5b60006122b68582860161215b565b92505060206122c7858286016121c4565b9150509250929050565b600080604083850312156122e457600080fd5b600083013567ffffffffffffffff8111156122fe57600080fd5b61230a85828601612170565b925050602083013567ffffffffffffffff81111561232757600080fd5b61233385828601612170565b9150509250929050565b60006020828403121561234f57600080fd5b600061235d848285016121c4565b91505092915050565b6000612372838361265a565b905092915050565b61238381612976565b82525050565b61239281612976565b82525050565b60006123a382612920565b6123ad8185612943565b9350836020820285016123bf85612910565b8060005b858110156123fb57848403895281516123dc8582612366565b94506123e783612936565b925060208a019950506001810190506123c3565b50829750879550505050505092915050565b61241681612988565b82525050565b60006124278261292b565b6124318185612954565b93506124418185602086016129cd565b61244a81612a00565b840191505092915050565b60006124608261292b565b61246a8185612965565b935061247a8185602086016129cd565b61248381612a00565b840191505092915050565b600061249b601683612965565b91507f63616c6c6572206d7573742062652070617469656e74000000000000000000006000830152602082019050919050565b60006124db602183612965565b91507f63616c6c6572206d75737420626520696e737469747574696f6e2f646f63746f60008301527f72000000000000000000000000000000000000000000000000000000000000006020830152604082019050919050565b6000612541601a83612965565b91507f63616c6c6572206d75737420626520696e737469747574696f6e0000000000006000830152602082019050919050565b6000612581601583612965565b91507f70617469656e74206d7573742062652076616c696400000000000000000000006000830152602082019050919050565b60006125c1602683612965565b91507f63616e206f6e6c79207368617265207769746820696e737469747574696f6e2f60008301527f646f63746f7200000000000000000000000000000000000000000000000000006020830152604082019050919050565b6000612627601483612965565b91507f646f63746f72206d7573742062652076616c69640000000000000000000000006000830152602082019050919050565b600060a083016000830151612672600086018261237a565b506020830151612685602086018261237a565b506040830151612698604086018261237a565b50606083015184820360608601526126b0828261241c565b915050608083015184820360808601526126ca828261241c565b9150508091505092915050565b60006020820190506126ec6000830184612389565b92915050565b600060a0820190506127076000830188612389565b6127146020830187612389565b6127216040830186612389565b81810360608301526127338185612455565b905081810360808301526127478184612455565b90509695505050505050565b60006060820190506127686000830186612389565b818103602083015261277a8185612455565b9050818103604083015261278e8184612455565b9050949350505050565b600060208201905081810360008301526127b28184612398565b905092915050565b60006020820190506127cf600083018461240d565b92915050565b600060208201905081810360008301526127ef8184612455565b905092915050565b600060208201905081810360008301526128108161248e565b9050919050565b60006020820190508181036000830152612830816124ce565b9050919050565b6000602082019050818103600083015261285081612534565b9050919050565b6000602082019050818103600083015261287081612574565b9050919050565b60006020820190508181036000830152612890816125b4565b9050919050565b600060208201905081810360008301526128b08161261a565b9050919050565b6000604051905081810181811067ffffffffffffffff821117156128da57600080fd5b8060405250919050565b600067ffffffffffffffff8211156128fb57600080fd5b601f19601f8301169050602081019050919050565b6000819050602082019050919050565b600081519050919050565b600081519050919050565b6000602082019050919050565b600082825260208201905092915050565b600082825260208201905092915050565b600082825260208201905092915050565b600061298182612994565b9050919050565b60008115159050919050565b600073ffffffffffffffffffffffffffffffffffffffff82169050919050565b6000819050919050565b82818337600083830152505050565b60005b838110156129eb5780820151818401526020810190506129d0565b838111156129fa576000848401525b50505050565b6000601f19601f8301169050919050565b612a1a81612976565b8114612a2557600080fd5b50565b612a31816129b4565b8114612a3c57600080fd5b5056fea365627a7a72315820a4d93cbf96dcc31b4aff1b1fd27fd10eb76d0427d528f827a741b5894ad32a506c6578706572696d656e74616cf564736f6c63430005100040",
  "source": "pragma solidity >=0.4.21 <0.6.0;\r\npragma experimental ABIEncoderV2;\r\n\r\ncontract HealthBlock {\r\n    struct Institution {\r\n        address institutionAddress;\r\n        string name;\r\n        string link;\r\n    }\r\n\r\n    struct Record {\r\n        address institution;\r\n        address doctor;\r\n        address patient;\r\n        string timestamp;\r\n        string link;\r\n    }\r\n\r\n    string public name = \"HealthBlock\";\r\n\r\n    Institution[] public institutions;\r\n    address[] public patients;\r\n    address[] public doctors;\r\n    mapping(address => bool) public isInstitution;\r\n    mapping(address => bool) public isPatient;\r\n    mapping(address => bool) public isDoctor;\r\n    mapping(address => address[]) public accessList;\r\n    mapping(address => Record[]) public records;\r\n    mapping(address => address[]) public entityHasAccessTo;\r\n\r\n    // Register patient\r\n    function registerPatient() public {\r\n        // Add user to patients array if not an institution or existing patient\r\n        if (!isInstitution[msg.sender] && !isPatient[msg.sender]) {\r\n            isPatient[msg.sender] = true;\r\n            patients.push(msg.sender);\r\n        }\r\n    }\r\n\r\n    // Register institution\r\n    function registerInstitution(string memory _name, string memory link) public {\r\n        // Add user to institutions array if not a patient/doctor or existing institution\r\n        if (!isInstitution[msg.sender] && !isPatient[msg.sender] && !isDoctor[msg.sender]) {\r\n            isInstitution[msg.sender] = true;\r\n            institutions.push(Institution({institutionAddress: msg.sender, name: _name, link: link}));\r\n        }\r\n    }\r\n\r\n    // Register doctor\r\n    function registerDoctor() public {\r\n        // Add user to doctors array if not an institution or existing doctor\r\n        if (!isInstitution[msg.sender] && !isDoctor[msg.sender]) {\r\n            isDoctor[msg.sender] = true;\r\n            doctors.push(msg.sender);\r\n        }\r\n    }\r\n\r\n    // Add medical record\r\n    function addRecord(address patient, address doctor, string memory timestamp, string memory link) public {\r\n        // Only institutions can call this function\r\n        require(isInstitution[msg.sender], \"caller must be institution\");\r\n\r\n        // Patient and doctor must be valid\r\n        require(isPatient[patient], \"patient must be valid\");\r\n        require(isDoctor[doctor], \"doctor must be valid\");\r\n\r\n        // Should also check timestamp and link\r\n\r\n        // Add record to records array if patient and doctor are valid\r\n        records[patient].push(Record({institution: msg.sender, doctor: doctor, patient: patient, timestamp: timestamp, link: link}));\r\n    }\r\n\r\n    // Share patient records with institution/doctor\r\n    function shareRecords(address entity) public {\r\n        // Only patients can call this function\r\n        require(isPatient[msg.sender], \"caller must be patient\");\r\n\r\n        // Can only share record with institution/doctor\r\n        require(isInstitution[entity] || isDoctor[entity], \"can only share with institution/doctor\");\r\n\r\n        // Add entity to user access list *if* not already in list\r\n        address[] memory patientAccList = accessList[msg.sender];\r\n        bool inList = false;\r\n\r\n        for (uint i = 0; i < patientAccList.length; i++) {\r\n            if (patientAccList[i] == entity) {\r\n                inList = true;\r\n            }\r\n        }\r\n\r\n        if (inList == false) {\r\n            accessList[msg.sender].push(entity);\r\n            entityHasAccessTo[entity].push(msg.sender);\r\n        }\r\n    }\r\n\r\n    // Return patient records if caller has access\r\n    function getRecords(address patient) public view returns(Record[] memory){\r\n        // Only institution and doctors can call this function\r\n        require(isInstitution[msg.sender] || isDoctor[msg.sender], \"caller must be institution/doctor\");\r\n\r\n        // Get patient access list\r\n        address[] memory patientAccList = accessList[patient];\r\n\r\n        // Caller must be in patient access list\r\n        for (uint i = 0; i < patientAccList.length; i++) {\r\n            if (patientAccList[i] == msg.sender) {\r\n                return records[patient];\r\n            }\r\n        }\r\n\r\n        // If caller not in patient access list, return empty list\r\n        Record[] memory emptyReturn; \r\n        return emptyReturn;\r\n    }\r\n\r\n    // Return all patient records to which caller has access !!! Costs a lot of gas and should only be used for debugging\r\n    function getAllRecords() public view returns(Record[] memory){\r\n        // Only institution and doctors can call this function\r\n        require(isInstitution[msg.sender] || isDoctor[msg.sender], \"caller must be institution/doctor\");\r\n\r\n        // Array containing all records\r\n        Record[] memory retRecords;\r\n        address[] memory entityAccess = entityHasAccessTo[msg.sender];\r\n\r\n        for (uint i = 0; i < entityAccess.length; i++) {\r\n            Record[] memory patientRecords = records[entityAccess[i]];\r\n            Record[] memory auxRecords = retRecords;\r\n\r\n            retRecords = new Record[](auxRecords.length + patientRecords.length);\r\n\r\n            for (uint j = 0; j < auxRecords.length; j++) {\r\n                retRecords[j] = auxRecords[j];\r\n            }\r\n\r\n            for (uint j = 0; j < patientRecords.length; j++) {\r\n                retRecords[j + auxRecords.length] = patientRecords[j];\r\n            }\r\n        }\r\n\r\n        return retRecords;\r\n    }\r\n\r\n}",
  "sourcePath": "D:\\Licenta\\Project\\HealthBlock\\HealthBlock\\src\\contracts\\HealthBlock.sol",
  "compiler": {
    "name": "solc",
    "version": "0.5.16+commit.9c3226ce.Emscripten.clang"
  },
  "schemaVersion": "3.4.7",
  "updatedAt": "2022-04-30T20:18:38.439Z",
  "networkType": "ethereum",
  "devdoc": {
    "methods": {}
  },
  "userdoc": {
    "methods": {}
  }
}