{
  "contractName": "HealthBlock",
  "abi": [
    {
      "constant": true,
      "inputs": [
        {
          "internalType": "uint256",
          "name": "",
          "type": "uint256"
        }
      ],
      "name": "doctors",
      "outputs": [
        {
          "internalType": "address",
          "name": "",
          "type": "address"
        }
      ],
      "payable": false,
      "stateMutability": "view",
      "type": "function"
    },
    {
      "constant": true,
      "inputs": [
        {
          "internalType": "uint256",
          "name": "",
          "type": "uint256"
        }
      ],
      "name": "institutions",
      "outputs": [
        {
          "internalType": "address",
          "name": "institutionAddress",
          "type": "address"
        },
        {
          "internalType": "string",
          "name": "name",
          "type": "string"
        },
        {
          "internalType": "string",
          "name": "link",
          "type": "string"
        }
      ],
      "payable": false,
      "stateMutability": "view",
      "type": "function"
    },
    {
      "constant": true,
      "inputs": [
        {
          "internalType": "address",
          "name": "",
          "type": "address"
        }
      ],
      "name": "isDoctor",
      "outputs": [
        {
          "internalType": "bool",
          "name": "",
          "type": "bool"
        }
      ],
      "payable": false,
      "stateMutability": "view",
      "type": "function"
    },
    {
      "constant": true,
      "inputs": [
        {
          "internalType": "address",
          "name": "",
          "type": "address"
        }
      ],
      "name": "isInstitution",
      "outputs": [
        {
          "internalType": "bool",
          "name": "",
          "type": "bool"
        }
      ],
      "payable": false,
      "stateMutability": "view",
      "type": "function"
    },
    {
      "constant": true,
      "inputs": [
        {
          "internalType": "address",
          "name": "",
          "type": "address"
        }
      ],
      "name": "isPatient",
      "outputs": [
        {
          "internalType": "bool",
          "name": "",
          "type": "bool"
        }
      ],
      "payable": false,
      "stateMutability": "view",
      "type": "function"
    },
    {
      "constant": true,
      "inputs": [],
      "name": "name",
      "outputs": [
        {
          "internalType": "string",
          "name": "",
          "type": "string"
        }
      ],
      "payable": false,
      "stateMutability": "view",
      "type": "function"
    },
    {
      "constant": true,
      "inputs": [
        {
          "internalType": "uint256",
          "name": "",
          "type": "uint256"
        }
      ],
      "name": "patients",
      "outputs": [
        {
          "internalType": "address",
          "name": "",
          "type": "address"
        }
      ],
      "payable": false,
      "stateMutability": "view",
      "type": "function"
    },
    {
      "constant": false,
      "inputs": [],
      "name": "registerPatient",
      "outputs": [],
      "payable": false,
      "stateMutability": "nonpayable",
      "type": "function"
    },
    {
      "constant": false,
      "inputs": [
        {
          "internalType": "string",
          "name": "_name",
          "type": "string"
        },
        {
          "internalType": "string",
          "name": "link",
          "type": "string"
        }
      ],
      "name": "registerInstitution",
      "outputs": [],
      "payable": false,
      "stateMutability": "nonpayable",
      "type": "function"
    },
    {
      "constant": false,
      "inputs": [],
      "name": "registerDoctor",
      "outputs": [],
      "payable": false,
      "stateMutability": "nonpayable",
      "type": "function"
    },
    {
      "constant": false,
      "inputs": [
        {
          "internalType": "address",
          "name": "patient",
          "type": "address"
        },
        {
          "internalType": "address",
          "name": "doctor",
          "type": "address"
        },
        {
          "internalType": "string",
          "name": "timestamp",
          "type": "string"
        },
        {
          "internalType": "string",
          "name": "link",
          "type": "string"
        }
      ],
      "name": "addRecord",
      "outputs": [],
      "payable": false,
      "stateMutability": "nonpayable",
      "type": "function"
    },
    {
      "constant": false,
      "inputs": [
        {
          "internalType": "address",
          "name": "entity",
          "type": "address"
        }
      ],
      "name": "shareRecords",
      "outputs": [],
      "payable": false,
      "stateMutability": "nonpayable",
      "type": "function"
    },
    {
      "constant": false,
      "inputs": [
        {
          "internalType": "address",
          "name": "entity",
          "type": "address"
        }
      ],
      "name": "unshareRecords",
      "outputs": [],
      "payable": false,
      "stateMutability": "nonpayable",
      "type": "function"
    },
    {
      "constant": true,
      "inputs": [
        {
          "internalType": "address",
          "name": "patient",
          "type": "address"
        }
      ],
      "name": "getPatientAccessList",
      "outputs": [
        {
          "internalType": "address[]",
          "name": "",
          "type": "address[]"
        }
      ],
      "payable": false,
      "stateMutability": "view",
      "type": "function"
    },
    {
      "constant": true,
      "inputs": [
        {
          "internalType": "address",
          "name": "entity",
          "type": "address"
        }
      ],
      "name": "getAccessablePatients",
      "outputs": [
        {
          "internalType": "address[]",
          "name": "",
          "type": "address[]"
        }
      ],
      "payable": false,
      "stateMutability": "view",
      "type": "function"
    },
    {
      "constant": true,
      "inputs": [
        {
          "internalType": "address",
          "name": "patient",
          "type": "address"
        }
      ],
      "name": "getRecords",
      "outputs": [
        {
          "components": [
            {
              "internalType": "address",
              "name": "institution",
              "type": "address"
            },
            {
              "internalType": "address",
              "name": "doctor",
              "type": "address"
            },
            {
              "internalType": "address",
              "name": "patient",
              "type": "address"
            },
            {
              "internalType": "string",
              "name": "timestamp",
              "type": "string"
            },
            {
              "internalType": "string",
              "name": "link",
              "type": "string"
            }
          ],
          "internalType": "struct HealthBlock.Record[]",
          "name": "",
          "type": "tuple[]"
        }
      ],
      "payable": false,
      "stateMutability": "view",
      "type": "function"
    },
    {
      "constant": true,
      "inputs": [],
      "name": "getAllRecords",
      "outputs": [
        {
          "components": [
            {
              "internalType": "address",
              "name": "institution",
              "type": "address"
            },
            {
              "internalType": "address",
              "name": "doctor",
              "type": "address"
            },
            {
              "internalType": "address",
              "name": "patient",
              "type": "address"
            },
            {
              "internalType": "string",
              "name": "timestamp",
              "type": "string"
            },
            {
              "internalType": "string",
              "name": "link",
              "type": "string"
            }
          ],
          "internalType": "struct HealthBlock.Record[]",
          "name": "",
          "type": "tuple[]"
        }
      ],
      "payable": false,
      "stateMutability": "view",
      "type": "function"
    }
  ],
  "bytecode": "0x60806040526040518060400160405280600b81526020017f4865616c7468426c6f636b000000000000000000000000000000000000000000815250600090805190602001906200005192919062000066565b503480156200005f57600080fd5b5062000115565b828054600181600116156101000203166002900490600052602060002090601f016020900481019282601f10620000a957805160ff1916838001178555620000da565b82800160010185558215620000da579182015b82811115620000d9578251825591602001919060010190620000bc565b5b509050620000e99190620000ed565b5090565b6200011291905b808211156200010e576000816000905550600101620000f4565b5090565b90565b61342280620001256000396000f3fe608060405234801561001057600080fd5b506004361061010b5760003560e01c8063822d3885116100a2578063a0076e8411610071578063a0076e84146102b6578063a7f9fe72146102e6578063c3b59d0014610304578063c6b5c5cc14610336578063eff0126d146103525761010b565b8063822d38851461021c5780638f9c79ed1461022657806393119a8314610256578063996440c6146102865761010b565b80636651390a116100de5780636651390a146101845780636efb1b84146101b45780637e14f234146101e45780637eb06605146102005761010b565b80630331df071461011057806306fdde03146101405780631a1984de1461015e57806338d0cd9d14610168575b600080fd5b61012a60048036036101259190810190612abf565b610382565b6040516101379190613101565b60405180910390f35b6101486103a2565b604051610155919061311c565b60405180910390f35b610166610440565b005b610182600480360361017d9190810190612ae8565b6105aa565b005b61019e60048036036101999190810190612abf565b610939565b6040516101ab91906130bd565b60405180910390f35b6101ce60048036036101c99190810190612be7565b610ae6565b6040516101db919061305d565b60405180910390f35b6101fe60048036036101f99190810190612abf565b610b22565b005b61021a60048036036102159190810190612abf565b610f1d565b005b6102246115dd565b005b610240600480360361023b9190810190612abf565b611747565b60405161024d9190613101565b60405180910390f35b610270600480360361026b9190810190612be7565b611767565b60405161027d919061305d565b60405180910390f35b6102a0600480360361029b9190810190612abf565b6117a3565b6040516102ad9190613101565b60405180910390f35b6102d060048036036102cb9190810190612abf565b6117c3565b6040516102dd91906130df565b60405180910390f35b6102ee611cc2565b6040516102fb91906130df565b60405180910390f35b61031e60048036036103199190810190612be7565b61225f565b60405161032d93929190613078565b60405180910390f35b610350600480360361034b9190810190612b7b565b6123e6565b005b61036c60048036036103679190810190612abf565b612624565b60405161037991906130bd565b60405180910390f35b60046020528060005260406000206000915054906101000a900460ff1681565b60008054600181600116156101000203166002900480601f0160208091040260200160405190810160405280929190818152602001828054600181600116156101000203166002900480156104385780601f1061040d57610100808354040283529160200191610438565b820191906000526020600020905b81548152906001019060200180831161041b57829003601f168201915b505050505081565b600460003373ffffffffffffffffffffffffffffffffffffffff1673ffffffffffffffffffffffffffffffffffffffff16815260200190815260200160002060009054906101000a900460ff161580156104e45750600660003373ffffffffffffffffffffffffffffffffffffffff1673ffffffffffffffffffffffffffffffffffffffff16815260200190815260200160002060009054906101000a900460ff16155b156105a8576001600660003373ffffffffffffffffffffffffffffffffffffffff1673ffffffffffffffffffffffffffffffffffffffff16815260200190815260200160002060006101000a81548160ff02191690831515021790555060033390806001815401808255809150509060018203906000526020600020016000909192909190916101000a81548173ffffffffffffffffffffffffffffffffffffffff021916908373ffffffffffffffffffffffffffffffffffffffff160217905550505b565b600460003373ffffffffffffffffffffffffffffffffffffffff1673ffffffffffffffffffffffffffffffffffffffff16815260200190815260200160002060009054906101000a900460ff16610636576040517f08c379a000000000000000000000000000000000000000000000000000000000815260040161062d9061317e565b60405180910390fd5b600560008573ffffffffffffffffffffffffffffffffffffffff1673ffffffffffffffffffffffffffffffffffffffff16815260200190815260200160002060009054906101000a900460ff166106c2576040517f08c379a00000000000000000000000000000000000000000000000000000000081526004016106b99061319e565b60405180910390fd5b600660008473ffffffffffffffffffffffffffffffffffffffff1673ffffffffffffffffffffffffffffffffffffffff16815260200190815260200160002060009054906101000a900460ff1661074e576040517f08c379a0000000000000000000000000000000000000000000000000000000008152600401610745906131de565b60405180910390fd5b600860008573ffffffffffffffffffffffffffffffffffffffff1673ffffffffffffffffffffffffffffffffffffffff1681526020019081526020016000206040518060a001604052803373ffffffffffffffffffffffffffffffffffffffff1681526020018573ffffffffffffffffffffffffffffffffffffffff1681526020018673ffffffffffffffffffffffffffffffffffffffff168152602001848152602001838152509080600181540180825580915050906001820390600052602060002090600502016000909192909190915060008201518160000160006101000a81548173ffffffffffffffffffffffffffffffffffffffff021916908373ffffffffffffffffffffffffffffffffffffffff16021790555060208201518160010160006101000a81548173ffffffffffffffffffffffffffffffffffffffff021916908373ffffffffffffffffffffffffffffffffffffffff16021790555060408201518160020160006101000a81548173ffffffffffffffffffffffffffffffffffffffff021916908373ffffffffffffffffffffffffffffffffffffffff160217905550606082015181600301908051906020019061091292919061292b565b50608082015181600401908051906020019061092f92919061292b565b5050505050505050565b6060600460008373ffffffffffffffffffffffffffffffffffffffff1673ffffffffffffffffffffffffffffffffffffffff16815260200190815260200160002060009054906101000a900460ff16806109dc5750600660008373ffffffffffffffffffffffffffffffffffffffff1673ffffffffffffffffffffffffffffffffffffffff16815260200190815260200160002060009054906101000a900460ff165b610a1b576040517f08c379a0000000000000000000000000000000000000000000000000000000008152600401610a12906131fe565b60405180910390fd5b600960008373ffffffffffffffffffffffffffffffffffffffff1673ffffffffffffffffffffffffffffffffffffffff168152602001908152602001600020805480602002602001604051908101604052809291908181526020018280548015610ada57602002820191906000526020600020905b8160009054906101000a900473ffffffffffffffffffffffffffffffffffffffff1673ffffffffffffffffffffffffffffffffffffffff1681526020019060010190808311610a90575b50505050509050919050565b60038181548110610af357fe5b906000526020600020016000915054906101000a900473ffffffffffffffffffffffffffffffffffffffff1681565b600560003373ffffffffffffffffffffffffffffffffffffffff1673ffffffffffffffffffffffffffffffffffffffff16815260200190815260200160002060009054906101000a900460ff16610bae576040517f08c379a0000000000000000000000000000000000000000000000000000000008152600401610ba59061313e565b60405180910390fd5b600460008273ffffffffffffffffffffffffffffffffffffffff1673ffffffffffffffffffffffffffffffffffffffff16815260200190815260200160002060009054906101000a900460ff1680610c4f5750600660008273ffffffffffffffffffffffffffffffffffffffff1673ffffffffffffffffffffffffffffffffffffffff16815260200190815260200160002060009054906101000a900460ff165b610c8e576040517f08c379a0000000000000000000000000000000000000000000000000000000008152600401610c85906131be565b60405180910390fd5b6060600760003373ffffffffffffffffffffffffffffffffffffffff1673ffffffffffffffffffffffffffffffffffffffff168152602001908152602001600020805480602002602001604051908101604052809291908181526020018280548015610d4f57602002820191906000526020600020905b8160009054906101000a900473ffffffffffffffffffffffffffffffffffffffff1673ffffffffffffffffffffffffffffffffffffffff1681526020019060010190808311610d05575b50505050509050600080905060008090505b8251811015610dc3578373ffffffffffffffffffffffffffffffffffffffff16838281518110610d8d57fe5b602002602001015173ffffffffffffffffffffffffffffffffffffffff161415610db657600191505b8080600101915050610d61565b50600015158115151415610f1857600760003373ffffffffffffffffffffffffffffffffffffffff1673ffffffffffffffffffffffffffffffffffffffff1681526020019081526020016000208390806001815401808255809150509060018203906000526020600020016000909192909190916101000a81548173ffffffffffffffffffffffffffffffffffffffff021916908373ffffffffffffffffffffffffffffffffffffffff16021790555050600960008473ffffffffffffffffffffffffffffffffffffffff1673ffffffffffffffffffffffffffffffffffffffff1681526020019081526020016000203390806001815401808255809150509060018203906000526020600020016000909192909190916101000a81548173ffffffffffffffffffffffffffffffffffffffff021916908373ffffffffffffffffffffffffffffffffffffffff160217905550505b505050565b600560003373ffffffffffffffffffffffffffffffffffffffff1673ffffffffffffffffffffffffffffffffffffffff16815260200190815260200160002060009054906101000a900460ff16610fa9576040517f08c379a0000000000000000000000000000000000000000000000000000000008152600401610fa09061313e565b60405180910390fd5b6060600760003373ffffffffffffffffffffffffffffffffffffffff1673ffffffffffffffffffffffffffffffffffffffff16815260200190815260200160002080548060200260200160405190810160405280929190818152602001828054801561106a57602002820191906000526020600020905b8160009054906101000a900473ffffffffffffffffffffffffffffffffffffffff1673ffffffffffffffffffffffffffffffffffffffff1681526020019060010190808311611020575b50505050509050600080905060008090505b82518110156110e4578373ffffffffffffffffffffffffffffffffffffffff168382815181106110a857fe5b602002602001015173ffffffffffffffffffffffffffffffffffffffff1614156110d7576001810191506110e4565b808060010191505061107c565b5060008111156112bb57600760003373ffffffffffffffffffffffffffffffffffffffff1673ffffffffffffffffffffffffffffffffffffffff1681526020019081526020016000206001600760003373ffffffffffffffffffffffffffffffffffffffff1673ffffffffffffffffffffffffffffffffffffffff16815260200190815260200160002080549050038154811061117d57fe5b9060005260206000200160009054906101000a900473ffffffffffffffffffffffffffffffffffffffff16600760003373ffffffffffffffffffffffffffffffffffffffff1673ffffffffffffffffffffffffffffffffffffffff16815260200190815260200160002060018303815481106111f557fe5b9060005260206000200160006101000a81548173ffffffffffffffffffffffffffffffffffffffff021916908373ffffffffffffffffffffffffffffffffffffffff160217905550600760003373ffffffffffffffffffffffffffffffffffffffff1673ffffffffffffffffffffffffffffffffffffffff16815260200190815260200160002080548061128557fe5b6001900381819060005260206000200160006101000a81549073ffffffffffffffffffffffffffffffffffffffff021916905590555b600081106115d8576060600960008573ffffffffffffffffffffffffffffffffffffffff1673ffffffffffffffffffffffffffffffffffffffff16815260200190815260200160002080548060200260200160405190810160405280929190818152602001828054801561138457602002820191906000526020600020905b8160009054906101000a900473ffffffffffffffffffffffffffffffffffffffff1673ffffffffffffffffffffffffffffffffffffffff168152602001906001019080831161133a575b50505050509050600080905060008090505b82518110156113fe573373ffffffffffffffffffffffffffffffffffffffff168382815181106113c257fe5b602002602001015173ffffffffffffffffffffffffffffffffffffffff1614156113f1576001810191506113fe565b8080600101915050611396565b5060008111156115d557600960008673ffffffffffffffffffffffffffffffffffffffff1673ffffffffffffffffffffffffffffffffffffffff1681526020019081526020016000206001600960008873ffffffffffffffffffffffffffffffffffffffff1673ffffffffffffffffffffffffffffffffffffffff16815260200190815260200160002080549050038154811061149757fe5b9060005260206000200160009054906101000a900473ffffffffffffffffffffffffffffffffffffffff16600960008773ffffffffffffffffffffffffffffffffffffffff1673ffffffffffffffffffffffffffffffffffffffff168152602001908152602001600020600183038154811061150f57fe5b9060005260206000200160006101000a81548173ffffffffffffffffffffffffffffffffffffffff021916908373ffffffffffffffffffffffffffffffffffffffff160217905550600960008673ffffffffffffffffffffffffffffffffffffffff1673ffffffffffffffffffffffffffffffffffffffff16815260200190815260200160002080548061159f57fe5b6001900381819060005260206000200160006101000a81549073ffffffffffffffffffffffffffffffffffffffff021916905590555b50505b505050565b600460003373ffffffffffffffffffffffffffffffffffffffff1673ffffffffffffffffffffffffffffffffffffffff16815260200190815260200160002060009054906101000a900460ff161580156116815750600560003373ffffffffffffffffffffffffffffffffffffffff1673ffffffffffffffffffffffffffffffffffffffff16815260200190815260200160002060009054906101000a900460ff16155b15611745576001600560003373ffffffffffffffffffffffffffffffffffffffff1673ffffffffffffffffffffffffffffffffffffffff16815260200190815260200160002060006101000a81548160ff02191690831515021790555060023390806001815401808255809150509060018203906000526020600020016000909192909190916101000a81548173ffffffffffffffffffffffffffffffffffffffff021916908373ffffffffffffffffffffffffffffffffffffffff160217905550505b565b60056020528060005260406000206000915054906101000a900460ff1681565b6002818154811061177457fe5b906000526020600020016000915054906101000a900473ffffffffffffffffffffffffffffffffffffffff1681565b60066020528060005260406000206000915054906101000a900460ff1681565b6060600460003373ffffffffffffffffffffffffffffffffffffffff1673ffffffffffffffffffffffffffffffffffffffff16815260200190815260200160002060009054906101000a900460ff16806118665750600660003373ffffffffffffffffffffffffffffffffffffffff1673ffffffffffffffffffffffffffffffffffffffff16815260200190815260200160002060009054906101000a900460ff165b6118a5576040517f08c379a000000000000000000000000000000000000000000000000000000000815260040161189c9061315e565b60405180910390fd5b6060600760008473ffffffffffffffffffffffffffffffffffffffff1673ffffffffffffffffffffffffffffffffffffffff16815260200190815260200160002080548060200260200160405190810160405280929190818152602001828054801561196657602002820191906000526020600020905b8160009054906101000a900473ffffffffffffffffffffffffffffffffffffffff1673ffffffffffffffffffffffffffffffffffffffff168152602001906001019080831161191c575b5050505050905060008090505b8151811015611cb4573373ffffffffffffffffffffffffffffffffffffffff1682828151811061199f57fe5b602002602001015173ffffffffffffffffffffffffffffffffffffffff161415611ca757600860008573ffffffffffffffffffffffffffffffffffffffff1673ffffffffffffffffffffffffffffffffffffffff168152602001908152602001600020805480602002602001604051908101604052809291908181526020016000905b82821015611c9a57838290600052602060002090600502016040518060a00160405290816000820160009054906101000a900473ffffffffffffffffffffffffffffffffffffffff1673ffffffffffffffffffffffffffffffffffffffff1673ffffffffffffffffffffffffffffffffffffffff1681526020016001820160009054906101000a900473ffffffffffffffffffffffffffffffffffffffff1673ffffffffffffffffffffffffffffffffffffffff1673ffffffffffffffffffffffffffffffffffffffff1681526020016002820160009054906101000a900473ffffffffffffffffffffffffffffffffffffffff1673ffffffffffffffffffffffffffffffffffffffff1673ffffffffffffffffffffffffffffffffffffffff168152602001600382018054600181600116156101000203166002900480601f016020809104026020016040519081016040528092919081815260200182805460018160011615610100020316600290048015611be05780601f10611bb557610100808354040283529160200191611be0565b820191906000526020600020905b815481529060010190602001808311611bc357829003601f168201915b50505050508152602001600482018054600181600116156101000203166002900480601f016020809104026020016040519081016040528092919081815260200182805460018160011615610100020316600290048015611c825780601f10611c5757610100808354040283529160200191611c82565b820191906000526020600020905b815481529060010190602001808311611c6557829003601f168201915b50505050508152505081526020019060010190611a22565b5050505092505050611cbd565b8080600101915050611973565b50606080925050505b919050565b6060600460003373ffffffffffffffffffffffffffffffffffffffff1673ffffffffffffffffffffffffffffffffffffffff16815260200190815260200160002060009054906101000a900460ff1680611d655750600660003373ffffffffffffffffffffffffffffffffffffffff1673ffffffffffffffffffffffffffffffffffffffff16815260200190815260200160002060009054906101000a900460ff165b611da4576040517f08c379a0000000000000000000000000000000000000000000000000000000008152600401611d9b9061315e565b60405180910390fd5b606080600960003373ffffffffffffffffffffffffffffffffffffffff1673ffffffffffffffffffffffffffffffffffffffff168152602001908152602001600020805480602002602001604051908101604052809291908181526020018280548015611e6657602002820191906000526020600020905b8160009054906101000a900473ffffffffffffffffffffffffffffffffffffffff1673ffffffffffffffffffffffffffffffffffffffff1681526020019060010190808311611e1c575b5050505050905060008090505b815181101561225657606060086000848481518110611e8e57fe5b602002602001015173ffffffffffffffffffffffffffffffffffffffff1673ffffffffffffffffffffffffffffffffffffffff168152602001908152602001600020805480602002602001604051908101604052809291908181526020016000905b8282101561216857838290600052602060002090600502016040518060a00160405290816000820160009054906101000a900473ffffffffffffffffffffffffffffffffffffffff1673ffffffffffffffffffffffffffffffffffffffff1673ffffffffffffffffffffffffffffffffffffffff1681526020016001820160009054906101000a900473ffffffffffffffffffffffffffffffffffffffff1673ffffffffffffffffffffffffffffffffffffffff1673ffffffffffffffffffffffffffffffffffffffff1681526020016002820160009054906101000a900473ffffffffffffffffffffffffffffffffffffffff1673ffffffffffffffffffffffffffffffffffffffff1673ffffffffffffffffffffffffffffffffffffffff168152602001600382018054600181600116156101000203166002900480601f0160208091040260200160405190810160405280929190818152602001828054600181600116156101000203166002900480156120ae5780601f10612083576101008083540402835291602001916120ae565b820191906000526020600020905b81548152906001019060200180831161209157829003601f168201915b50505050508152602001600482018054600181600116156101000203166002900480601f0160208091040260200160405190810160405280929190818152602001828054600181600116156101000203166002900480156121505780601f1061212557610100808354040283529160200191612150565b820191906000526020600020905b81548152906001019060200180831161213357829003601f168201915b50505050508152505081526020019060010190611ef0565b505050509050606084905081518151016040519080825280602002602001820160405280156121b157816020015b61219e6129ab565b8152602001906001900390816121965790505b50945060008090505b81518110156121fb578181815181106121cf57fe5b60200260200101518682815181106121e357fe5b602002602001018190525080806001019150506121ba565b5060008090505b82518110156122465782818151811061221757fe5b602002602001015186835183018151811061222e57fe5b60200260200101819052508080600101915050612202565b5050508080600101915050611e73565b50819250505090565b6001818154811061226c57fe5b90600052602060002090600302016000915090508060000160009054906101000a900473ffffffffffffffffffffffffffffffffffffffff1690806001018054600181600116156101000203166002900480601f01602080910402602001604051908101604052809291908181526020018280546001816001161561010002031660029004801561233e5780601f106123135761010080835404028352916020019161233e565b820191906000526020600020905b81548152906001019060200180831161232157829003601f168201915b505050505090806002018054600181600116156101000203166002900480601f0160208091040260200160405190810160405280929190818152602001828054600181600116156101000203166002900480156123dc5780601f106123b1576101008083540402835291602001916123dc565b820191906000526020600020905b8154815290600101906020018083116123bf57829003601f168201915b5050505050905083565b600460003373ffffffffffffffffffffffffffffffffffffffff1673ffffffffffffffffffffffffffffffffffffffff16815260200190815260200160002060009054906101000a900460ff1615801561248a5750600560003373ffffffffffffffffffffffffffffffffffffffff1673ffffffffffffffffffffffffffffffffffffffff16815260200190815260200160002060009054906101000a900460ff16155b80156124e05750600660003373ffffffffffffffffffffffffffffffffffffffff1673ffffffffffffffffffffffffffffffffffffffff16815260200190815260200160002060009054906101000a900460ff16155b15612620576001600460003373ffffffffffffffffffffffffffffffffffffffff1673ffffffffffffffffffffffffffffffffffffffff16815260200190815260200160002060006101000a81548160ff021916908315150217905550600160405180606001604052803373ffffffffffffffffffffffffffffffffffffffff168152602001848152602001838152509080600181540180825580915050906001820390600052602060002090600302016000909192909190915060008201518160000160006101000a81548173ffffffffffffffffffffffffffffffffffffffff021916908373ffffffffffffffffffffffffffffffffffffffff16021790555060208201518160010190805190602001906125fe92919061292b565b50604082015181600201908051906020019061261b92919061292b565b505050505b5050565b60603373ffffffffffffffffffffffffffffffffffffffff168273ffffffffffffffffffffffffffffffffffffffff16141561272557600760008373ffffffffffffffffffffffffffffffffffffffff1673ffffffffffffffffffffffffffffffffffffffff16815260200190815260200160002080548060200260200160405190810160405280929190818152602001828054801561271957602002820191906000526020600020905b8160009054906101000a900473ffffffffffffffffffffffffffffffffffffffff1673ffffffffffffffffffffffffffffffffffffffff16815260200190600101908083116126cf575b50505050509050612926565b6060600760008473ffffffffffffffffffffffffffffffffffffffff1673ffffffffffffffffffffffffffffffffffffffff1681526020019081526020016000208054806020026020016040519081016040528092919081815260200182805480156127e657602002820191906000526020600020905b8160009054906101000a900473ffffffffffffffffffffffffffffffffffffffff1673ffffffffffffffffffffffffffffffffffffffff168152602001906001019080831161279c575b5050505050905060008090505b815181101561291d573373ffffffffffffffffffffffffffffffffffffffff1682828151811061281f57fe5b602002602001015173ffffffffffffffffffffffffffffffffffffffff16141561291057600760008573ffffffffffffffffffffffffffffffffffffffff1673ffffffffffffffffffffffffffffffffffffffff16815260200190815260200160002080548060200260200160405190810160405280929190818152602001828054801561290257602002820191906000526020600020905b8160009054906101000a900473ffffffffffffffffffffffffffffffffffffffff1673ffffffffffffffffffffffffffffffffffffffff16815260200190600101908083116128b8575b505050505092505050612926565b80806001019150506127f3565b50606080925050505b919050565b828054600181600116156101000203166002900490600052602060002090601f016020900481019282601f1061296c57805160ff191683800117855561299a565b8280016001018555821561299a579182015b8281111561299957825182559160200191906001019061297e565b5b5090506129a79190612a1c565b5090565b6040518060a00160405280600073ffffffffffffffffffffffffffffffffffffffff168152602001600073ffffffffffffffffffffffffffffffffffffffff168152602001600073ffffffffffffffffffffffffffffffffffffffff16815260200160608152602001606081525090565b612a3e91905b80821115612a3a576000816000905550600101612a22565b5090565b90565b600081359050612a50816133b1565b92915050565b600082601f830112612a6757600080fd5b8135612a7a612a758261324b565b61321e565b91508082526020830160208301858383011115612a9657600080fd5b612aa183828461335e565b50505092915050565b600081359050612ab9816133c8565b92915050565b600060208284031215612ad157600080fd5b6000612adf84828501612a41565b91505092915050565b60008060008060808587031215612afe57600080fd5b6000612b0c87828801612a41565b9450506020612b1d87828801612a41565b935050604085013567ffffffffffffffff811115612b3a57600080fd5b612b4687828801612a56565b925050606085013567ffffffffffffffff811115612b6357600080fd5b612b6f87828801612a56565b91505092959194509250565b60008060408385031215612b8e57600080fd5b600083013567ffffffffffffffff811115612ba857600080fd5b612bb485828601612a56565b925050602083013567ffffffffffffffff811115612bd157600080fd5b612bdd85828601612a56565b9150509250929050565b600060208284031215612bf957600080fd5b6000612c0784828501612aaa565b91505092915050565b6000612c1c8383612c3c565b60208301905092915050565b6000612c348383612fe0565b905092915050565b612c4581613316565b82525050565b612c5481613316565b82525050565b6000612c6582613297565b612c6f81856132d2565b9350612c7a83613277565b8060005b83811015612cab578151612c928882612c10565b9750612c9d836132b8565b925050600181019050612c7e565b5085935050505092915050565b6000612cc3826132a2565b612ccd81856132e3565b935083602082028501612cdf85613287565b8060005b85811015612d1b5784840389528151612cfc8582612c28565b9450612d07836132c5565b925060208a01995050600181019050612ce3565b50829750879550505050505092915050565b612d3681613328565b82525050565b6000612d47826132ad565b612d5181856132f4565b9350612d6181856020860161336d565b612d6a816133a0565b840191505092915050565b6000612d80826132ad565b612d8a8185613305565b9350612d9a81856020860161336d565b612da3816133a0565b840191505092915050565b6000612dbb601683613305565b91507f63616c6c6572206d7573742062652070617469656e74000000000000000000006000830152602082019050919050565b6000612dfb602183613305565b91507f63616c6c6572206d75737420626520696e737469747574696f6e2f646f63746f60008301527f72000000000000000000000000000000000000000000000000000000000000006020830152604082019050919050565b6000612e61601a83613305565b91507f63616c6c6572206d75737420626520696e737469747574696f6e0000000000006000830152602082019050919050565b6000612ea1601583613305565b91507f70617469656e74206d7573742062652076616c696400000000000000000000006000830152602082019050919050565b6000612ee1602683613305565b91507f63616e206f6e6c79207368617265207769746820696e737469747574696f6e2f60008301527f646f63746f7200000000000000000000000000000000000000000000000000006020830152604082019050919050565b6000612f47601483613305565b91507f646f63746f72206d7573742062652076616c69640000000000000000000000006000830152602082019050919050565b6000612f87602c83613305565b91507f7370656369666965642061646472657373206d75737420626520696e7374697460008301527f7574696f6e2f646f63746f7200000000000000000000000000000000000000006020830152604082019050919050565b600060a083016000830151612ff86000860182612c3c565b50602083015161300b6020860182612c3c565b50604083015161301e6040860182612c3c565b50606083015184820360608601526130368282612d3c565b915050608083015184820360808601526130508282612d3c565b9150508091505092915050565b60006020820190506130726000830184612c4b565b92915050565b600060608201905061308d6000830186612c4b565b818103602083015261309f8185612d75565b905081810360408301526130b38184612d75565b9050949350505050565b600060208201905081810360008301526130d78184612c5a565b905092915050565b600060208201905081810360008301526130f98184612cb8565b905092915050565b60006020820190506131166000830184612d2d565b92915050565b600060208201905081810360008301526131368184612d75565b905092915050565b6000602082019050818103600083015261315781612dae565b9050919050565b6000602082019050818103600083015261317781612dee565b9050919050565b6000602082019050818103600083015261319781612e54565b9050919050565b600060208201905081810360008301526131b781612e94565b9050919050565b600060208201905081810360008301526131d781612ed4565b9050919050565b600060208201905081810360008301526131f781612f3a565b9050919050565b6000602082019050818103600083015261321781612f7a565b9050919050565b6000604051905081810181811067ffffffffffffffff8211171561324157600080fd5b8060405250919050565b600067ffffffffffffffff82111561326257600080fd5b601f19601f8301169050602081019050919050565b6000819050602082019050919050565b6000819050602082019050919050565b600081519050919050565b600081519050919050565b600081519050919050565b6000602082019050919050565b6000602082019050919050565b600082825260208201905092915050565b600082825260208201905092915050565b600082825260208201905092915050565b600082825260208201905092915050565b600061332182613334565b9050919050565b60008115159050919050565b600073ffffffffffffffffffffffffffffffffffffffff82169050919050565b6000819050919050565b82818337600083830152505050565b60005b8381101561338b578082015181840152602081019050613370565b8381111561339a576000848401525b50505050565b6000601f19601f8301169050919050565b6133ba81613316565b81146133c557600080fd5b50565b6133d181613354565b81146133dc57600080fd5b5056fea365627a7a723158207e550e535877ed16eb628efe2e7c75f61bf18e6e320927703053bac5ec4b74896c6578706572696d656e74616cf564736f6c63430005100040",
  "source": "pragma solidity >=0.4.21 <0.6.0;\r\npragma experimental ABIEncoderV2;\r\n\r\ncontract HealthBlock {\r\n    struct Institution {\r\n        address institutionAddress;\r\n        string name;\r\n        string link;\r\n    }\r\n\r\n    struct Record {\r\n        address institution;\r\n        address doctor;\r\n        address patient;\r\n        string timestamp;\r\n        string link;\r\n    }\r\n\r\n    string public name = \"HealthBlock\";\r\n\r\n    Institution[] public institutions;\r\n    address[] public patients;\r\n    address[] public doctors;\r\n    mapping(address => bool) public isInstitution;\r\n    mapping(address => bool) public isPatient;\r\n    mapping(address => bool) public isDoctor;\r\n    mapping(address => address[]) private accessList;\r\n    mapping(address => Record[]) private records;\r\n    mapping(address => address[]) private entityHasAccessTo;\r\n\r\n    // Register patient\r\n    function registerPatient() public {\r\n        // Add user to patients array if not an institution or existing patient\r\n        if (!isInstitution[msg.sender] && !isPatient[msg.sender]) {\r\n            isPatient[msg.sender] = true;\r\n            patients.push(msg.sender);\r\n        }\r\n    }\r\n\r\n    // Register institution\r\n    function registerInstitution(string memory _name, string memory link) public {\r\n        // Add user to institutions array if not a patient/doctor or existing institution\r\n        if (!isInstitution[msg.sender] && !isPatient[msg.sender] && !isDoctor[msg.sender]) {\r\n            isInstitution[msg.sender] = true;\r\n            institutions.push(Institution({institutionAddress: msg.sender, name: _name, link: link}));\r\n        }\r\n    }\r\n\r\n    // Register doctor\r\n    function registerDoctor() public {\r\n        // Add user to doctors array if not an institution or existing doctor\r\n        if (!isInstitution[msg.sender] && !isDoctor[msg.sender]) {\r\n            isDoctor[msg.sender] = true;\r\n            doctors.push(msg.sender);\r\n        }\r\n    }\r\n\r\n    // Add medical record\r\n    function addRecord(address patient, address doctor, string memory timestamp, string memory link) public {\r\n        // Only institutions can call this function\r\n        require(isInstitution[msg.sender], \"caller must be institution\");\r\n\r\n        // Patient and doctor must be valid\r\n        require(isPatient[patient], \"patient must be valid\");\r\n        require(isDoctor[doctor], \"doctor must be valid\");\r\n\r\n        // Add record to patient records array\r\n        records[patient].push(Record({institution: msg.sender, doctor: doctor, patient: patient, timestamp: timestamp, link: link}));\r\n    }\r\n\r\n    // Share patient records with institution/doctor\r\n    function shareRecords(address entity) public {\r\n        // Only patients can call this function\r\n        require(isPatient[msg.sender], \"caller must be patient\");\r\n\r\n        // Can only share record with institution/doctor\r\n        require(isInstitution[entity] || isDoctor[entity], \"can only share with institution/doctor\");\r\n\r\n        // Add entity to user access list *if* not already in list\r\n        address[] memory patientAccList = accessList[msg.sender];\r\n        bool inList = false;\r\n\r\n        for (uint i = 0; i < patientAccList.length; i++) {\r\n            if (patientAccList[i] == entity) {\r\n                inList = true;\r\n            }\r\n        }\r\n\r\n        if (inList == false) {\r\n            accessList[msg.sender].push(entity);\r\n            entityHasAccessTo[entity].push(msg.sender);\r\n        }\r\n    }\r\n\r\n    // Unshare records\r\n    function unshareRecords(address entity) public {\r\n        // Only patients can call this function\r\n        require(isPatient[msg.sender], \"caller must be patient\");\r\n\r\n        // Remove specified entity from access list\r\n        address[] memory patientAccList = accessList[msg.sender];\r\n\r\n        uint entityIndex = 0;\r\n        for (uint i = 0; i < patientAccList.length; i++) {\r\n            if (patientAccList[i] == entity) {\r\n                entityIndex = i + 1;\r\n                break;\r\n            }\r\n        }\r\n\r\n        if (entityIndex > 0) {\r\n            accessList[msg.sender][entityIndex - 1] = accessList[msg.sender][accessList[msg.sender].length - 1];\r\n            accessList[msg.sender].pop();\r\n        }\r\n\r\n        // Remove patient from entity accessable patients\r\n        if (entityIndex >= 0) {\r\n            address[] memory entityAccess = entityHasAccessTo[entity];\r\n            uint patientIndex = 0;\r\n\r\n            for (uint i = 0; i < entityAccess.length; i++) {\r\n                if (entityAccess[i] == msg.sender) {\r\n                    patientIndex = i + 1;\r\n                    break;\r\n                }\r\n            }\r\n\r\n            if (patientIndex > 0) {\r\n                entityHasAccessTo[entity][patientIndex - 1] = entityHasAccessTo[entity][entityHasAccessTo[entity].length - 1];\r\n                entityHasAccessTo[entity].pop();\r\n            }\r\n        }\r\n    }\r\n\r\n    // Returns access list for specified patient\r\n    function getPatientAccessList(address patient) public view returns(address[] memory) {\r\n        // If caller is specified patient return access list\r\n        if (patient == msg.sender) {\r\n            return accessList[patient];\r\n        }\r\n\r\n        // Get patient access list\r\n        address[] memory patientAccList = accessList[patient];\r\n\r\n        // If caller is in specified patient access list return access list\r\n        for (uint i = 0; i < patientAccList.length; i++) {\r\n            if (patientAccList[i] == msg.sender) {\r\n                return accessList[patient];\r\n            }\r\n        }\r\n\r\n        // If caller is not specified patient or does not have access to \r\n        // that patient list then return nothing\r\n        address[] memory emptyReturn; \r\n        return emptyReturn;\r\n    }\r\n\r\n    // Returns patients to which institution/doctor has access\r\n    function getAccessablePatients(address entity) public view returns(address[] memory) {\r\n        // Requires specified address to be registered patient\r\n        require(isInstitution[entity] || isDoctor[entity], \"specified address must be institution/doctor\");\r\n\r\n        return entityHasAccessTo[entity];\r\n    }\r\n\r\n    // Return patient records if caller has access\r\n    function getRecords(address patient) public view returns(Record[] memory){\r\n        // Only institution and doctors can call this function\r\n        require(isInstitution[msg.sender] || isDoctor[msg.sender], \"caller must be institution/doctor\");\r\n\r\n        // Get patient access list\r\n        address[] memory patientAccList = accessList[patient];\r\n\r\n        // Caller must be in patient access list\r\n        for (uint i = 0; i < patientAccList.length; i++) {\r\n            if (patientAccList[i] == msg.sender) {\r\n                return records[patient];\r\n            }\r\n        }\r\n\r\n        // If caller not in patient access list, return empty list\r\n        Record[] memory emptyReturn; \r\n        return emptyReturn;\r\n    }\r\n\r\n    // Return all patient records to which caller has access !!! Costs a lot of gas and should only be used for debugging\r\n    function getAllRecords() public view returns(Record[] memory){\r\n        // Only institution and doctors can call this function\r\n        require(isInstitution[msg.sender] || isDoctor[msg.sender], \"caller must be institution/doctor\");\r\n\r\n        // Array containing all records\r\n        Record[] memory retRecords;\r\n        address[] memory entityAccess = entityHasAccessTo[msg.sender];\r\n\r\n        for (uint i = 0; i < entityAccess.length; i++) {\r\n            Record[] memory patientRecords = records[entityAccess[i]];\r\n            Record[] memory auxRecords = retRecords;\r\n\r\n            retRecords = new Record[](auxRecords.length + patientRecords.length);\r\n\r\n            for (uint j = 0; j < auxRecords.length; j++) {\r\n                retRecords[j] = auxRecords[j];\r\n            }\r\n\r\n            for (uint j = 0; j < patientRecords.length; j++) {\r\n                retRecords[j + auxRecords.length] = patientRecords[j];\r\n            }\r\n        }\r\n\r\n        return retRecords;\r\n    }\r\n}",
  "sourcePath": "D:\\Licenta\\Project\\HealthBlock\\HealthBlock\\src\\contracts\\HealthBlock.sol",
  "compiler": {
    "name": "solc",
    "version": "0.5.16+commit.9c3226ce.Emscripten.clang"
  },
  "schemaVersion": "3.4.7",
  "updatedAt": "2022-06-03T14:15:42.692Z",
  "networkType": "ethereum",
  "devdoc": {
    "methods": {}
  },
  "userdoc": {
    "methods": {}
  }
}