{
  "contractName": "HealthBlock",
  "abi": [
    {
      "constant": true,
      "inputs": [
        {
          "internalType": "address",
          "name": "",
          "type": "address"
        },
        {
          "internalType": "uint256",
          "name": "",
          "type": "uint256"
        }
      ],
      "name": "accessList",
      "outputs": [
        {
          "internalType": "address",
          "name": "",
          "type": "address"
        }
      ],
      "payable": false,
      "stateMutability": "view",
      "type": "function"
    },
    {
      "constant": true,
      "inputs": [
        {
          "internalType": "uint256",
          "name": "",
          "type": "uint256"
        }
      ],
      "name": "doctors",
      "outputs": [
        {
          "internalType": "address",
          "name": "",
          "type": "address"
        }
      ],
      "payable": false,
      "stateMutability": "view",
      "type": "function"
    },
    {
      "constant": true,
      "inputs": [
        {
          "internalType": "address",
          "name": "",
          "type": "address"
        },
        {
          "internalType": "uint256",
          "name": "",
          "type": "uint256"
        }
      ],
      "name": "entityHasAccessTo",
      "outputs": [
        {
          "internalType": "address",
          "name": "",
          "type": "address"
        }
      ],
      "payable": false,
      "stateMutability": "view",
      "type": "function"
    },
    {
      "constant": true,
      "inputs": [
        {
          "internalType": "uint256",
          "name": "",
          "type": "uint256"
        }
      ],
      "name": "institutions",
      "outputs": [
        {
          "internalType": "address",
          "name": "institutionAddress",
          "type": "address"
        },
        {
          "internalType": "string",
          "name": "name",
          "type": "string"
        },
        {
          "internalType": "string",
          "name": "link",
          "type": "string"
        }
      ],
      "payable": false,
      "stateMutability": "view",
      "type": "function"
    },
    {
      "constant": true,
      "inputs": [
        {
          "internalType": "address",
          "name": "",
          "type": "address"
        }
      ],
      "name": "isDoctor",
      "outputs": [
        {
          "internalType": "bool",
          "name": "",
          "type": "bool"
        }
      ],
      "payable": false,
      "stateMutability": "view",
      "type": "function"
    },
    {
      "constant": true,
      "inputs": [
        {
          "internalType": "address",
          "name": "",
          "type": "address"
        }
      ],
      "name": "isInstitution",
      "outputs": [
        {
          "internalType": "bool",
          "name": "",
          "type": "bool"
        }
      ],
      "payable": false,
      "stateMutability": "view",
      "type": "function"
    },
    {
      "constant": true,
      "inputs": [
        {
          "internalType": "address",
          "name": "",
          "type": "address"
        }
      ],
      "name": "isPatient",
      "outputs": [
        {
          "internalType": "bool",
          "name": "",
          "type": "bool"
        }
      ],
      "payable": false,
      "stateMutability": "view",
      "type": "function"
    },
    {
      "constant": true,
      "inputs": [],
      "name": "name",
      "outputs": [
        {
          "internalType": "string",
          "name": "",
          "type": "string"
        }
      ],
      "payable": false,
      "stateMutability": "view",
      "type": "function"
    },
    {
      "constant": true,
      "inputs": [
        {
          "internalType": "uint256",
          "name": "",
          "type": "uint256"
        }
      ],
      "name": "patients",
      "outputs": [
        {
          "internalType": "address",
          "name": "",
          "type": "address"
        }
      ],
      "payable": false,
      "stateMutability": "view",
      "type": "function"
    },
    {
      "constant": true,
      "inputs": [
        {
          "internalType": "address",
          "name": "",
          "type": "address"
        },
        {
          "internalType": "uint256",
          "name": "",
          "type": "uint256"
        }
      ],
      "name": "records",
      "outputs": [
        {
          "internalType": "address",
          "name": "institution",
          "type": "address"
        },
        {
          "internalType": "address",
          "name": "doctor",
          "type": "address"
        },
        {
          "internalType": "address",
          "name": "patient",
          "type": "address"
        },
        {
          "internalType": "string",
          "name": "timestamp",
          "type": "string"
        },
        {
          "internalType": "string",
          "name": "link",
          "type": "string"
        }
      ],
      "payable": false,
      "stateMutability": "view",
      "type": "function"
    },
    {
      "constant": false,
      "inputs": [],
      "name": "registerPatient",
      "outputs": [],
      "payable": false,
      "stateMutability": "nonpayable",
      "type": "function"
    },
    {
      "constant": false,
      "inputs": [
        {
          "internalType": "string",
          "name": "_name",
          "type": "string"
        },
        {
          "internalType": "string",
          "name": "link",
          "type": "string"
        }
      ],
      "name": "registerInstitution",
      "outputs": [],
      "payable": false,
      "stateMutability": "nonpayable",
      "type": "function"
    },
    {
      "constant": false,
      "inputs": [],
      "name": "registerDoctor",
      "outputs": [],
      "payable": false,
      "stateMutability": "nonpayable",
      "type": "function"
    },
    {
      "constant": false,
      "inputs": [
        {
          "internalType": "address",
          "name": "patient",
          "type": "address"
        },
        {
          "internalType": "address",
          "name": "doctor",
          "type": "address"
        },
        {
          "internalType": "string",
          "name": "timestamp",
          "type": "string"
        },
        {
          "internalType": "string",
          "name": "link",
          "type": "string"
        }
      ],
      "name": "addRecord",
      "outputs": [],
      "payable": false,
      "stateMutability": "nonpayable",
      "type": "function"
    },
    {
      "constant": false,
      "inputs": [
        {
          "internalType": "address",
          "name": "entity",
          "type": "address"
        }
      ],
      "name": "shareRecords",
      "outputs": [],
      "payable": false,
      "stateMutability": "nonpayable",
      "type": "function"
    },
    {
      "constant": false,
      "inputs": [
        {
          "internalType": "address",
          "name": "entity",
          "type": "address"
        }
      ],
      "name": "unshareRecords",
      "outputs": [],
      "payable": false,
      "stateMutability": "nonpayable",
      "type": "function"
    },
    {
      "constant": true,
      "inputs": [
        {
          "internalType": "address",
          "name": "patient",
          "type": "address"
        }
      ],
      "name": "getPatientAccessList",
      "outputs": [
        {
          "internalType": "address[]",
          "name": "",
          "type": "address[]"
        }
      ],
      "payable": false,
      "stateMutability": "view",
      "type": "function"
    },
    {
      "constant": true,
      "inputs": [
        {
          "internalType": "address",
          "name": "entity",
          "type": "address"
        }
      ],
      "name": "getAccessablePatients",
      "outputs": [
        {
          "internalType": "address[]",
          "name": "",
          "type": "address[]"
        }
      ],
      "payable": false,
      "stateMutability": "view",
      "type": "function"
    },
    {
      "constant": true,
      "inputs": [
        {
          "internalType": "address",
          "name": "patient",
          "type": "address"
        }
      ],
      "name": "getRecords",
      "outputs": [
        {
          "components": [
            {
              "internalType": "address",
              "name": "institution",
              "type": "address"
            },
            {
              "internalType": "address",
              "name": "doctor",
              "type": "address"
            },
            {
              "internalType": "address",
              "name": "patient",
              "type": "address"
            },
            {
              "internalType": "string",
              "name": "timestamp",
              "type": "string"
            },
            {
              "internalType": "string",
              "name": "link",
              "type": "string"
            }
          ],
          "internalType": "struct HealthBlock.Record[]",
          "name": "",
          "type": "tuple[]"
        }
      ],
      "payable": false,
      "stateMutability": "view",
      "type": "function"
    },
    {
      "constant": true,
      "inputs": [],
      "name": "getAllRecords",
      "outputs": [
        {
          "components": [
            {
              "internalType": "address",
              "name": "institution",
              "type": "address"
            },
            {
              "internalType": "address",
              "name": "doctor",
              "type": "address"
            },
            {
              "internalType": "address",
              "name": "patient",
              "type": "address"
            },
            {
              "internalType": "string",
              "name": "timestamp",
              "type": "string"
            },
            {
              "internalType": "string",
              "name": "link",
              "type": "string"
            }
          ],
          "internalType": "struct HealthBlock.Record[]",
          "name": "",
          "type": "tuple[]"
        }
      ],
      "payable": false,
      "stateMutability": "view",
      "type": "function"
    }
  ],
  "bytecode": "0x60806040526040518060400160405280600b81526020017f4865616c7468426c6f636b000000000000000000000000000000000000000000815250600090805190602001906200005192919062000066565b503480156200005f57600080fd5b5062000115565b828054600181600116156101000203166002900490600052602060002090601f016020900481019282601f10620000a957805160ff1916838001178555620000da565b82800160010185558215620000da579182015b82811115620000d9578251825591602001919060010190620000bc565b5b509050620000e99190620000ed565b5090565b6200011291905b808211156200010e576000816000905550600101620000f4565b5090565b90565b6136c280620001256000396000f3fe608060405234801561001057600080fd5b506004361061012c5760003560e01c8063822d3885116100ad578063a0076e8411610071578063a0076e841461036b578063a7f9fe721461039b578063c3b59d00146103b9578063c6b5c5cc146103eb578063eff0126d146104075761012c565b8063822d38851461029d57806382a6c0ac146102a75780638f9c79ed146102db57806393119a831461030b578063996440c61461033b5761012c565b80636651390a116100f45780636651390a146101d55780636efb1b841461020557806370c2b419146102355780637e14f234146102655780637eb06605146102815761012c565b80630331df071461013157806306fdde03146101615780631a1984de1461017f57806328e839f71461018957806338d0cd9d146101b9575b600080fd5b61014b60048036036101469190810190612c3c565b610437565b6040516101589190613381565b60405180910390f35b610169610457565b604051610176919061339c565b60405180910390f35b6101876104f5565b005b6101a3600480360361019e9190810190612cf8565b61065f565b6040516101b0919061327c565b60405180910390f35b6101d360048036036101ce9190810190612c65565b6106aa565b005b6101ef60048036036101ea9190810190612c3c565b610a39565b6040516101fc919061333d565b60405180910390f35b61021f600480360361021a9190810190612da0565b610be6565b60405161022c919061327c565b60405180910390f35b61024f600480360361024a9190810190612cf8565b610c22565b60405161025c919061327c565b60405180910390f35b61027f600480360361027a9190810190612c3c565b610c6d565b005b61029b60048036036102969190810190612c3c565b611068565b005b6102a5611728565b005b6102c160048036036102bc9190810190612cf8565b611892565b6040516102d2959493929190613297565b60405180910390f35b6102f560048036036102f09190810190612c3c565b611a72565b6040516103029190613381565b60405180910390f35b61032560048036036103209190810190612da0565b611a92565b604051610332919061327c565b60405180910390f35b61035560048036036103509190810190612c3c565b611ace565b6040516103629190613381565b60405180910390f35b61038560048036036103809190810190612c3c565b611aee565b604051610392919061335f565b60405180910390f35b6103a3611fed565b6040516103b0919061335f565b60405180910390f35b6103d360048036036103ce9190810190612da0565b61258a565b6040516103e2939291906132f8565b60405180910390f35b61040560048036036104009190810190612d34565b612711565b005b610421600480360361041c9190810190612c3c565b61294f565b60405161042e919061333d565b60405180910390f35b60046020528060005260406000206000915054906101000a900460ff1681565b60008054600181600116156101000203166002900480601f0160208091040260200160405190810160405280929190818152602001828054600181600116156101000203166002900480156104ed5780601f106104c2576101008083540402835291602001916104ed565b820191906000526020600020905b8154815290600101906020018083116104d057829003601f168201915b505050505081565b600460003373ffffffffffffffffffffffffffffffffffffffff1673ffffffffffffffffffffffffffffffffffffffff16815260200190815260200160002060009054906101000a900460ff161580156105995750600660003373ffffffffffffffffffffffffffffffffffffffff1673ffffffffffffffffffffffffffffffffffffffff16815260200190815260200160002060009054906101000a900460ff16155b1561065d576001600660003373ffffffffffffffffffffffffffffffffffffffff1673ffffffffffffffffffffffffffffffffffffffff16815260200190815260200160002060006101000a81548160ff02191690831515021790555060033390806001815401808255809150509060018203906000526020600020016000909192909190916101000a81548173ffffffffffffffffffffffffffffffffffffffff021916908373ffffffffffffffffffffffffffffffffffffffff160217905550505b565b6009602052816000526040600020818154811061067857fe5b906000526020600020016000915091509054906101000a900473ffffffffffffffffffffffffffffffffffffffff1681565b600460003373ffffffffffffffffffffffffffffffffffffffff1673ffffffffffffffffffffffffffffffffffffffff16815260200190815260200160002060009054906101000a900460ff16610736576040517f08c379a000000000000000000000000000000000000000000000000000000000815260040161072d9061341e565b60405180910390fd5b600560008573ffffffffffffffffffffffffffffffffffffffff1673ffffffffffffffffffffffffffffffffffffffff16815260200190815260200160002060009054906101000a900460ff166107c2576040517f08c379a00000000000000000000000000000000000000000000000000000000081526004016107b99061343e565b60405180910390fd5b600660008473ffffffffffffffffffffffffffffffffffffffff1673ffffffffffffffffffffffffffffffffffffffff16815260200190815260200160002060009054906101000a900460ff1661084e576040517f08c379a00000000000000000000000000000000000000000000000000000000081526004016108459061347e565b60405180910390fd5b600860008573ffffffffffffffffffffffffffffffffffffffff1673ffffffffffffffffffffffffffffffffffffffff1681526020019081526020016000206040518060a001604052803373ffffffffffffffffffffffffffffffffffffffff1681526020018573ffffffffffffffffffffffffffffffffffffffff1681526020018673ffffffffffffffffffffffffffffffffffffffff168152602001848152602001838152509080600181540180825580915050906001820390600052602060002090600502016000909192909190915060008201518160000160006101000a81548173ffffffffffffffffffffffffffffffffffffffff021916908373ffffffffffffffffffffffffffffffffffffffff16021790555060208201518160010160006101000a81548173ffffffffffffffffffffffffffffffffffffffff021916908373ffffffffffffffffffffffffffffffffffffffff16021790555060408201518160020160006101000a81548173ffffffffffffffffffffffffffffffffffffffff021916908373ffffffffffffffffffffffffffffffffffffffff1602179055506060820151816003019080519060200190610a12929190612aa8565b506080820151816004019080519060200190610a2f929190612aa8565b5050505050505050565b6060600460008373ffffffffffffffffffffffffffffffffffffffff1673ffffffffffffffffffffffffffffffffffffffff16815260200190815260200160002060009054906101000a900460ff1680610adc5750600660008373ffffffffffffffffffffffffffffffffffffffff1673ffffffffffffffffffffffffffffffffffffffff16815260200190815260200160002060009054906101000a900460ff165b610b1b576040517f08c379a0000000000000000000000000000000000000000000000000000000008152600401610b129061349e565b60405180910390fd5b600960008373ffffffffffffffffffffffffffffffffffffffff1673ffffffffffffffffffffffffffffffffffffffff168152602001908152602001600020805480602002602001604051908101604052809291908181526020018280548015610bda57602002820191906000526020600020905b8160009054906101000a900473ffffffffffffffffffffffffffffffffffffffff1673ffffffffffffffffffffffffffffffffffffffff1681526020019060010190808311610b90575b50505050509050919050565b60038181548110610bf357fe5b906000526020600020016000915054906101000a900473ffffffffffffffffffffffffffffffffffffffff1681565b60076020528160005260406000208181548110610c3b57fe5b906000526020600020016000915091509054906101000a900473ffffffffffffffffffffffffffffffffffffffff1681565b600560003373ffffffffffffffffffffffffffffffffffffffff1673ffffffffffffffffffffffffffffffffffffffff16815260200190815260200160002060009054906101000a900460ff16610cf9576040517f08c379a0000000000000000000000000000000000000000000000000000000008152600401610cf0906133be565b60405180910390fd5b600460008273ffffffffffffffffffffffffffffffffffffffff1673ffffffffffffffffffffffffffffffffffffffff16815260200190815260200160002060009054906101000a900460ff1680610d9a5750600660008273ffffffffffffffffffffffffffffffffffffffff1673ffffffffffffffffffffffffffffffffffffffff16815260200190815260200160002060009054906101000a900460ff165b610dd9576040517f08c379a0000000000000000000000000000000000000000000000000000000008152600401610dd09061345e565b60405180910390fd5b6060600760003373ffffffffffffffffffffffffffffffffffffffff1673ffffffffffffffffffffffffffffffffffffffff168152602001908152602001600020805480602002602001604051908101604052809291908181526020018280548015610e9a57602002820191906000526020600020905b8160009054906101000a900473ffffffffffffffffffffffffffffffffffffffff1673ffffffffffffffffffffffffffffffffffffffff1681526020019060010190808311610e50575b50505050509050600080905060008090505b8251811015610f0e578373ffffffffffffffffffffffffffffffffffffffff16838281518110610ed857fe5b602002602001015173ffffffffffffffffffffffffffffffffffffffff161415610f0157600191505b8080600101915050610eac565b5060001515811515141561106357600760003373ffffffffffffffffffffffffffffffffffffffff1673ffffffffffffffffffffffffffffffffffffffff1681526020019081526020016000208390806001815401808255809150509060018203906000526020600020016000909192909190916101000a81548173ffffffffffffffffffffffffffffffffffffffff021916908373ffffffffffffffffffffffffffffffffffffffff16021790555050600960008473ffffffffffffffffffffffffffffffffffffffff1673ffffffffffffffffffffffffffffffffffffffff1681526020019081526020016000203390806001815401808255809150509060018203906000526020600020016000909192909190916101000a81548173ffffffffffffffffffffffffffffffffffffffff021916908373ffffffffffffffffffffffffffffffffffffffff160217905550505b505050565b600560003373ffffffffffffffffffffffffffffffffffffffff1673ffffffffffffffffffffffffffffffffffffffff16815260200190815260200160002060009054906101000a900460ff166110f4576040517f08c379a00000000000000000000000000000000000000000000000000000000081526004016110eb906133be565b60405180910390fd5b6060600760003373ffffffffffffffffffffffffffffffffffffffff1673ffffffffffffffffffffffffffffffffffffffff1681526020019081526020016000208054806020026020016040519081016040528092919081815260200182805480156111b557602002820191906000526020600020905b8160009054906101000a900473ffffffffffffffffffffffffffffffffffffffff1673ffffffffffffffffffffffffffffffffffffffff168152602001906001019080831161116b575b50505050509050600080905060008090505b825181101561122f578373ffffffffffffffffffffffffffffffffffffffff168382815181106111f357fe5b602002602001015173ffffffffffffffffffffffffffffffffffffffff1614156112225760018101915061122f565b80806001019150506111c7565b50600081111561140657600760003373ffffffffffffffffffffffffffffffffffffffff1673ffffffffffffffffffffffffffffffffffffffff1681526020019081526020016000206001600760003373ffffffffffffffffffffffffffffffffffffffff1673ffffffffffffffffffffffffffffffffffffffff1681526020019081526020016000208054905003815481106112c857fe5b9060005260206000200160009054906101000a900473ffffffffffffffffffffffffffffffffffffffff16600760003373ffffffffffffffffffffffffffffffffffffffff1673ffffffffffffffffffffffffffffffffffffffff168152602001908152602001600020600183038154811061134057fe5b9060005260206000200160006101000a81548173ffffffffffffffffffffffffffffffffffffffff021916908373ffffffffffffffffffffffffffffffffffffffff160217905550600760003373ffffffffffffffffffffffffffffffffffffffff1673ffffffffffffffffffffffffffffffffffffffff1681526020019081526020016000208054806113d057fe5b6001900381819060005260206000200160006101000a81549073ffffffffffffffffffffffffffffffffffffffff021916905590555b60008110611723576060600960008573ffffffffffffffffffffffffffffffffffffffff1673ffffffffffffffffffffffffffffffffffffffff1681526020019081526020016000208054806020026020016040519081016040528092919081815260200182805480156114cf57602002820191906000526020600020905b8160009054906101000a900473ffffffffffffffffffffffffffffffffffffffff1673ffffffffffffffffffffffffffffffffffffffff1681526020019060010190808311611485575b50505050509050600080905060008090505b8251811015611549573373ffffffffffffffffffffffffffffffffffffffff1683828151811061150d57fe5b602002602001015173ffffffffffffffffffffffffffffffffffffffff16141561153c57600181019150611549565b80806001019150506114e1565b50600081111561172057600960008673ffffffffffffffffffffffffffffffffffffffff1673ffffffffffffffffffffffffffffffffffffffff1681526020019081526020016000206001600960008873ffffffffffffffffffffffffffffffffffffffff1673ffffffffffffffffffffffffffffffffffffffff1681526020019081526020016000208054905003815481106115e257fe5b9060005260206000200160009054906101000a900473ffffffffffffffffffffffffffffffffffffffff16600960008773ffffffffffffffffffffffffffffffffffffffff1673ffffffffffffffffffffffffffffffffffffffff168152602001908152602001600020600183038154811061165a57fe5b9060005260206000200160006101000a81548173ffffffffffffffffffffffffffffffffffffffff021916908373ffffffffffffffffffffffffffffffffffffffff160217905550600960008673ffffffffffffffffffffffffffffffffffffffff1673ffffffffffffffffffffffffffffffffffffffff1681526020019081526020016000208054806116ea57fe5b6001900381819060005260206000200160006101000a81549073ffffffffffffffffffffffffffffffffffffffff021916905590555b50505b505050565b600460003373ffffffffffffffffffffffffffffffffffffffff1673ffffffffffffffffffffffffffffffffffffffff16815260200190815260200160002060009054906101000a900460ff161580156117cc5750600560003373ffffffffffffffffffffffffffffffffffffffff1673ffffffffffffffffffffffffffffffffffffffff16815260200190815260200160002060009054906101000a900460ff16155b15611890576001600560003373ffffffffffffffffffffffffffffffffffffffff1673ffffffffffffffffffffffffffffffffffffffff16815260200190815260200160002060006101000a81548160ff02191690831515021790555060023390806001815401808255809150509060018203906000526020600020016000909192909190916101000a81548173ffffffffffffffffffffffffffffffffffffffff021916908373ffffffffffffffffffffffffffffffffffffffff160217905550505b565b600860205281600052604060002081815481106118ab57fe5b9060005260206000209060050201600091509150508060000160009054906101000a900473ffffffffffffffffffffffffffffffffffffffff16908060010160009054906101000a900473ffffffffffffffffffffffffffffffffffffffff16908060020160009054906101000a900473ffffffffffffffffffffffffffffffffffffffff1690806003018054600181600116156101000203166002900480601f0160208091040260200160405190810160405280929190818152602001828054600181600116156101000203166002900480156119ca5780601f1061199f576101008083540402835291602001916119ca565b820191906000526020600020905b8154815290600101906020018083116119ad57829003601f168201915b505050505090806004018054600181600116156101000203166002900480601f016020809104026020016040519081016040528092919081815260200182805460018160011615610100020316600290048015611a685780601f10611a3d57610100808354040283529160200191611a68565b820191906000526020600020905b815481529060010190602001808311611a4b57829003601f168201915b5050505050905085565b60056020528060005260406000206000915054906101000a900460ff1681565b60028181548110611a9f57fe5b906000526020600020016000915054906101000a900473ffffffffffffffffffffffffffffffffffffffff1681565b60066020528060005260406000206000915054906101000a900460ff1681565b6060600460003373ffffffffffffffffffffffffffffffffffffffff1673ffffffffffffffffffffffffffffffffffffffff16815260200190815260200160002060009054906101000a900460ff1680611b915750600660003373ffffffffffffffffffffffffffffffffffffffff1673ffffffffffffffffffffffffffffffffffffffff16815260200190815260200160002060009054906101000a900460ff165b611bd0576040517f08c379a0000000000000000000000000000000000000000000000000000000008152600401611bc7906133de565b60405180910390fd5b6060600760008473ffffffffffffffffffffffffffffffffffffffff1673ffffffffffffffffffffffffffffffffffffffff168152602001908152602001600020805480602002602001604051908101604052809291908181526020018280548015611c9157602002820191906000526020600020905b8160009054906101000a900473ffffffffffffffffffffffffffffffffffffffff1673ffffffffffffffffffffffffffffffffffffffff1681526020019060010190808311611c47575b5050505050905060008090505b8151811015611fdf573373ffffffffffffffffffffffffffffffffffffffff16828281518110611cca57fe5b602002602001015173ffffffffffffffffffffffffffffffffffffffff161415611fd257600860008573ffffffffffffffffffffffffffffffffffffffff1673ffffffffffffffffffffffffffffffffffffffff168152602001908152602001600020805480602002602001604051908101604052809291908181526020016000905b82821015611fc557838290600052602060002090600502016040518060a00160405290816000820160009054906101000a900473ffffffffffffffffffffffffffffffffffffffff1673ffffffffffffffffffffffffffffffffffffffff1673ffffffffffffffffffffffffffffffffffffffff1681526020016001820160009054906101000a900473ffffffffffffffffffffffffffffffffffffffff1673ffffffffffffffffffffffffffffffffffffffff1673ffffffffffffffffffffffffffffffffffffffff1681526020016002820160009054906101000a900473ffffffffffffffffffffffffffffffffffffffff1673ffffffffffffffffffffffffffffffffffffffff1673ffffffffffffffffffffffffffffffffffffffff168152602001600382018054600181600116156101000203166002900480601f016020809104026020016040519081016040528092919081815260200182805460018160011615610100020316600290048015611f0b5780601f10611ee057610100808354040283529160200191611f0b565b820191906000526020600020905b815481529060010190602001808311611eee57829003601f168201915b50505050508152602001600482018054600181600116156101000203166002900480601f016020809104026020016040519081016040528092919081815260200182805460018160011615610100020316600290048015611fad5780601f10611f8257610100808354040283529160200191611fad565b820191906000526020600020905b815481529060010190602001808311611f9057829003601f168201915b50505050508152505081526020019060010190611d4d565b5050505092505050611fe8565b8080600101915050611c9e565b50606080925050505b919050565b6060600460003373ffffffffffffffffffffffffffffffffffffffff1673ffffffffffffffffffffffffffffffffffffffff16815260200190815260200160002060009054906101000a900460ff16806120905750600660003373ffffffffffffffffffffffffffffffffffffffff1673ffffffffffffffffffffffffffffffffffffffff16815260200190815260200160002060009054906101000a900460ff165b6120cf576040517f08c379a00000000000000000000000000000000000000000000000000000000081526004016120c6906133de565b60405180910390fd5b606080600960003373ffffffffffffffffffffffffffffffffffffffff1673ffffffffffffffffffffffffffffffffffffffff16815260200190815260200160002080548060200260200160405190810160405280929190818152602001828054801561219157602002820191906000526020600020905b8160009054906101000a900473ffffffffffffffffffffffffffffffffffffffff1673ffffffffffffffffffffffffffffffffffffffff1681526020019060010190808311612147575b5050505050905060008090505b8151811015612581576060600860008484815181106121b957fe5b602002602001015173ffffffffffffffffffffffffffffffffffffffff1673ffffffffffffffffffffffffffffffffffffffff168152602001908152602001600020805480602002602001604051908101604052809291908181526020016000905b8282101561249357838290600052602060002090600502016040518060a00160405290816000820160009054906101000a900473ffffffffffffffffffffffffffffffffffffffff1673ffffffffffffffffffffffffffffffffffffffff1673ffffffffffffffffffffffffffffffffffffffff1681526020016001820160009054906101000a900473ffffffffffffffffffffffffffffffffffffffff1673ffffffffffffffffffffffffffffffffffffffff1673ffffffffffffffffffffffffffffffffffffffff1681526020016002820160009054906101000a900473ffffffffffffffffffffffffffffffffffffffff1673ffffffffffffffffffffffffffffffffffffffff1673ffffffffffffffffffffffffffffffffffffffff168152602001600382018054600181600116156101000203166002900480601f0160208091040260200160405190810160405280929190818152602001828054600181600116156101000203166002900480156123d95780601f106123ae576101008083540402835291602001916123d9565b820191906000526020600020905b8154815290600101906020018083116123bc57829003601f168201915b50505050508152602001600482018054600181600116156101000203166002900480601f01602080910402602001604051908101604052809291908181526020018280546001816001161561010002031660029004801561247b5780601f106124505761010080835404028352916020019161247b565b820191906000526020600020905b81548152906001019060200180831161245e57829003601f168201915b5050505050815250508152602001906001019061221b565b505050509050606084905081518151016040519080825280602002602001820160405280156124dc57816020015b6124c9612b28565b8152602001906001900390816124c15790505b50945060008090505b8151811015612526578181815181106124fa57fe5b602002602001015186828151811061250e57fe5b602002602001018190525080806001019150506124e5565b5060008090505b82518110156125715782818151811061254257fe5b602002602001015186835183018151811061255957fe5b6020026020010181905250808060010191505061252d565b505050808060010191505061219e565b50819250505090565b6001818154811061259757fe5b90600052602060002090600302016000915090508060000160009054906101000a900473ffffffffffffffffffffffffffffffffffffffff1690806001018054600181600116156101000203166002900480601f0160208091040260200160405190810160405280929190818152602001828054600181600116156101000203166002900480156126695780601f1061263e57610100808354040283529160200191612669565b820191906000526020600020905b81548152906001019060200180831161264c57829003601f168201915b505050505090806002018054600181600116156101000203166002900480601f0160208091040260200160405190810160405280929190818152602001828054600181600116156101000203166002900480156127075780601f106126dc57610100808354040283529160200191612707565b820191906000526020600020905b8154815290600101906020018083116126ea57829003601f168201915b5050505050905083565b600460003373ffffffffffffffffffffffffffffffffffffffff1673ffffffffffffffffffffffffffffffffffffffff16815260200190815260200160002060009054906101000a900460ff161580156127b55750600560003373ffffffffffffffffffffffffffffffffffffffff1673ffffffffffffffffffffffffffffffffffffffff16815260200190815260200160002060009054906101000a900460ff16155b801561280b5750600660003373ffffffffffffffffffffffffffffffffffffffff1673ffffffffffffffffffffffffffffffffffffffff16815260200190815260200160002060009054906101000a900460ff16155b1561294b576001600460003373ffffffffffffffffffffffffffffffffffffffff1673ffffffffffffffffffffffffffffffffffffffff16815260200190815260200160002060006101000a81548160ff021916908315150217905550600160405180606001604052803373ffffffffffffffffffffffffffffffffffffffff168152602001848152602001838152509080600181540180825580915050906001820390600052602060002090600302016000909192909190915060008201518160000160006101000a81548173ffffffffffffffffffffffffffffffffffffffff021916908373ffffffffffffffffffffffffffffffffffffffff1602179055506020820151816001019080519060200190612929929190612aa8565b506040820151816002019080519060200190612946929190612aa8565b505050505b5050565b6060600560008373ffffffffffffffffffffffffffffffffffffffff1673ffffffffffffffffffffffffffffffffffffffff16815260200190815260200160002060009054906101000a900460ff166129dd576040517f08c379a00000000000000000000000000000000000000000000000000000000081526004016129d4906133fe565b60405180910390fd5b600760008373ffffffffffffffffffffffffffffffffffffffff1673ffffffffffffffffffffffffffffffffffffffff168152602001908152602001600020805480602002602001604051908101604052809291908181526020018280548015612a9c57602002820191906000526020600020905b8160009054906101000a900473ffffffffffffffffffffffffffffffffffffffff1673ffffffffffffffffffffffffffffffffffffffff1681526020019060010190808311612a52575b50505050509050919050565b828054600181600116156101000203166002900490600052602060002090601f016020900481019282601f10612ae957805160ff1916838001178555612b17565b82800160010185558215612b17579182015b82811115612b16578251825591602001919060010190612afb565b5b509050612b249190612b99565b5090565b6040518060a00160405280600073ffffffffffffffffffffffffffffffffffffffff168152602001600073ffffffffffffffffffffffffffffffffffffffff168152602001600073ffffffffffffffffffffffffffffffffffffffff16815260200160608152602001606081525090565b612bbb91905b80821115612bb7576000816000905550600101612b9f565b5090565b90565b600081359050612bcd81613651565b92915050565b600082601f830112612be457600080fd5b8135612bf7612bf2826134eb565b6134be565b91508082526020830160208301858383011115612c1357600080fd5b612c1e8382846135fe565b50505092915050565b600081359050612c3681613668565b92915050565b600060208284031215612c4e57600080fd5b6000612c5c84828501612bbe565b91505092915050565b60008060008060808587031215612c7b57600080fd5b6000612c8987828801612bbe565b9450506020612c9a87828801612bbe565b935050604085013567ffffffffffffffff811115612cb757600080fd5b612cc387828801612bd3565b925050606085013567ffffffffffffffff811115612ce057600080fd5b612cec87828801612bd3565b91505092959194509250565b60008060408385031215612d0b57600080fd5b6000612d1985828601612bbe565b9250506020612d2a85828601612c27565b9150509250929050565b60008060408385031215612d4757600080fd5b600083013567ffffffffffffffff811115612d6157600080fd5b612d6d85828601612bd3565b925050602083013567ffffffffffffffff811115612d8a57600080fd5b612d9685828601612bd3565b9150509250929050565b600060208284031215612db257600080fd5b6000612dc084828501612c27565b91505092915050565b6000612dd58383612df5565b60208301905092915050565b6000612ded83836131ff565b905092915050565b612dfe816135b6565b82525050565b612e0d816135b6565b82525050565b6000612e1e82613537565b612e288185613572565b9350612e3383613517565b8060005b83811015612e64578151612e4b8882612dc9565b9750612e5683613558565b925050600181019050612e37565b5085935050505092915050565b6000612e7c82613542565b612e868185613583565b935083602082028501612e9885613527565b8060005b85811015612ed45784840389528151612eb58582612de1565b9450612ec083613565565b925060208a01995050600181019050612e9c565b50829750879550505050505092915050565b612eef816135c8565b82525050565b6000612f008261354d565b612f0a8185613594565b9350612f1a81856020860161360d565b612f2381613640565b840191505092915050565b6000612f398261354d565b612f4381856135a5565b9350612f5381856020860161360d565b612f5c81613640565b840191505092915050565b6000612f746016836135a5565b91507f63616c6c6572206d7573742062652070617469656e74000000000000000000006000830152602082019050919050565b6000612fb46021836135a5565b91507f63616c6c6572206d75737420626520696e737469747574696f6e2f646f63746f60008301527f72000000000000000000000000000000000000000000000000000000000000006020830152604082019050919050565b600061301a6021836135a5565b91507f7370656369666965642061646472657373206d7573742062652070617469656e60008301527f74000000000000000000000000000000000000000000000000000000000000006020830152604082019050919050565b6000613080601a836135a5565b91507f63616c6c6572206d75737420626520696e737469747574696f6e0000000000006000830152602082019050919050565b60006130c06015836135a5565b91507f70617469656e74206d7573742062652076616c696400000000000000000000006000830152602082019050919050565b60006131006026836135a5565b91507f63616e206f6e6c79207368617265207769746820696e737469747574696f6e2f60008301527f646f63746f7200000000000000000000000000000000000000000000000000006020830152604082019050919050565b60006131666014836135a5565b91507f646f63746f72206d7573742062652076616c69640000000000000000000000006000830152602082019050919050565b60006131a6602c836135a5565b91507f7370656369666965642061646472657373206d75737420626520696e7374697460008301527f7574696f6e2f646f63746f7200000000000000000000000000000000000000006020830152604082019050919050565b600060a0830160008301516132176000860182612df5565b50602083015161322a6020860182612df5565b50604083015161323d6040860182612df5565b50606083015184820360608601526132558282612ef5565b9150506080830151848203608086015261326f8282612ef5565b9150508091505092915050565b60006020820190506132916000830184612e04565b92915050565b600060a0820190506132ac6000830188612e04565b6132b96020830187612e04565b6132c66040830186612e04565b81810360608301526132d88185612f2e565b905081810360808301526132ec8184612f2e565b90509695505050505050565b600060608201905061330d6000830186612e04565b818103602083015261331f8185612f2e565b905081810360408301526133338184612f2e565b9050949350505050565b600060208201905081810360008301526133578184612e13565b905092915050565b600060208201905081810360008301526133798184612e71565b905092915050565b60006020820190506133966000830184612ee6565b92915050565b600060208201905081810360008301526133b68184612f2e565b905092915050565b600060208201905081810360008301526133d781612f67565b9050919050565b600060208201905081810360008301526133f781612fa7565b9050919050565b600060208201905081810360008301526134178161300d565b9050919050565b6000602082019050818103600083015261343781613073565b9050919050565b60006020820190508181036000830152613457816130b3565b9050919050565b60006020820190508181036000830152613477816130f3565b9050919050565b6000602082019050818103600083015261349781613159565b9050919050565b600060208201905081810360008301526134b781613199565b9050919050565b6000604051905081810181811067ffffffffffffffff821117156134e157600080fd5b8060405250919050565b600067ffffffffffffffff82111561350257600080fd5b601f19601f8301169050602081019050919050565b6000819050602082019050919050565b6000819050602082019050919050565b600081519050919050565b600081519050919050565b600081519050919050565b6000602082019050919050565b6000602082019050919050565b600082825260208201905092915050565b600082825260208201905092915050565b600082825260208201905092915050565b600082825260208201905092915050565b60006135c1826135d4565b9050919050565b60008115159050919050565b600073ffffffffffffffffffffffffffffffffffffffff82169050919050565b6000819050919050565b82818337600083830152505050565b60005b8381101561362b578082015181840152602081019050613610565b8381111561363a576000848401525b50505050565b6000601f19601f8301169050919050565b61365a816135b6565b811461366557600080fd5b50565b613671816135f4565b811461367c57600080fd5b5056fea365627a7a723158201fc1475b00f1c812244ad738dcc7ac7bc6ba38b17c5c700e12ada952a5d14e9c6c6578706572696d656e74616cf564736f6c63430005100040",
  "source": "pragma solidity >=0.4.21 <0.6.0;\r\npragma experimental ABIEncoderV2;\r\n\r\ncontract HealthBlock {\r\n    struct Institution {\r\n        address institutionAddress;\r\n        string name;\r\n        string link;\r\n    }\r\n\r\n    struct Record {\r\n        address institution;\r\n        address doctor;\r\n        address patient;\r\n        string timestamp;\r\n        string link;\r\n    }\r\n\r\n    string public name = \"HealthBlock\";\r\n\r\n    Institution[] public institutions;\r\n    address[] public patients;\r\n    address[] public doctors;\r\n    mapping(address => bool) public isInstitution;\r\n    mapping(address => bool) public isPatient;\r\n    mapping(address => bool) public isDoctor;\r\n    mapping(address => address[]) public accessList;\r\n    mapping(address => Record[]) public records;\r\n    mapping(address => address[]) public entityHasAccessTo;\r\n\r\n    // Register patient\r\n    function registerPatient() public {\r\n        // Add user to patients array if not an institution or existing patient\r\n        if (!isInstitution[msg.sender] && !isPatient[msg.sender]) {\r\n            isPatient[msg.sender] = true;\r\n            patients.push(msg.sender);\r\n        }\r\n    }\r\n\r\n    // Register institution\r\n    function registerInstitution(string memory _name, string memory link) public {\r\n        // Add user to institutions array if not a patient/doctor or existing institution\r\n        if (!isInstitution[msg.sender] && !isPatient[msg.sender] && !isDoctor[msg.sender]) {\r\n            isInstitution[msg.sender] = true;\r\n            institutions.push(Institution({institutionAddress: msg.sender, name: _name, link: link}));\r\n        }\r\n    }\r\n\r\n    // Register doctor\r\n    function registerDoctor() public {\r\n        // Add user to doctors array if not an institution or existing doctor\r\n        if (!isInstitution[msg.sender] && !isDoctor[msg.sender]) {\r\n            isDoctor[msg.sender] = true;\r\n            doctors.push(msg.sender);\r\n        }\r\n    }\r\n\r\n    // Add medical record\r\n    function addRecord(address patient, address doctor, string memory timestamp, string memory link) public {\r\n        // Only institutions can call this function\r\n        require(isInstitution[msg.sender], \"caller must be institution\");\r\n\r\n        // Patient and doctor must be valid\r\n        require(isPatient[patient], \"patient must be valid\");\r\n        require(isDoctor[doctor], \"doctor must be valid\");\r\n\r\n        // Should also check timestamp and link\r\n\r\n        // Add record to records array if patient and doctor are valid\r\n        records[patient].push(Record({institution: msg.sender, doctor: doctor, patient: patient, timestamp: timestamp, link: link}));\r\n    }\r\n\r\n    // Share patient records with institution/doctor\r\n    function shareRecords(address entity) public {\r\n        // Only patients can call this function\r\n        require(isPatient[msg.sender], \"caller must be patient\");\r\n\r\n        // Can only share record with institution/doctor\r\n        require(isInstitution[entity] || isDoctor[entity], \"can only share with institution/doctor\");\r\n\r\n        // Add entity to user access list *if* not already in list\r\n        address[] memory patientAccList = accessList[msg.sender];\r\n        bool inList = false;\r\n\r\n        for (uint i = 0; i < patientAccList.length; i++) {\r\n            if (patientAccList[i] == entity) {\r\n                inList = true;\r\n            }\r\n        }\r\n\r\n        if (inList == false) {\r\n            accessList[msg.sender].push(entity);\r\n            entityHasAccessTo[entity].push(msg.sender);\r\n        }\r\n    }\r\n\r\n    // Unshare records\r\n    function unshareRecords(address entity) public {\r\n        // Only patients can call this function\r\n        require(isPatient[msg.sender], \"caller must be patient\");\r\n\r\n        // Remove specified entity from access list\r\n        address[] memory patientAccList = accessList[msg.sender];\r\n\r\n        uint entityIndex = 0;\r\n        for (uint i = 0; i < patientAccList.length; i++) {\r\n            if (patientAccList[i] == entity) {\r\n                entityIndex = i + 1;\r\n                break;\r\n            }\r\n        }\r\n\r\n        if (entityIndex > 0) {\r\n            accessList[msg.sender][entityIndex - 1] = accessList[msg.sender][accessList[msg.sender].length - 1];\r\n            accessList[msg.sender].pop();\r\n        }\r\n\r\n        // Remove patient from entity accessable patients\r\n        if (entityIndex >= 0) {\r\n            address[] memory entityAccess = entityHasAccessTo[entity];\r\n            uint patientIndex = 0;\r\n\r\n            for (uint i = 0; i < entityAccess.length; i++) {\r\n                if (entityAccess[i] == msg.sender) {\r\n                    patientIndex = i + 1;\r\n                    break;\r\n                }\r\n            }\r\n\r\n            if (patientIndex > 0) {\r\n                entityHasAccessTo[entity][patientIndex - 1] = entityHasAccessTo[entity][entityHasAccessTo[entity].length - 1];\r\n                entityHasAccessTo[entity].pop();\r\n            }\r\n        }\r\n    }\r\n\r\n    // Returns access list for specified patient\r\n    function getPatientAccessList(address patient) public view returns(address[] memory) {\r\n        // Requires specified address to be registered patient\r\n        require(isPatient[patient], \"specified address must be patient\");\r\n\r\n        return accessList[patient];\r\n    }\r\n\r\n    // Returns patients to which institution/doctor has access\r\n    function getAccessablePatients(address entity) public view returns(address[] memory) {\r\n        // Requires specified address to be registered patient\r\n        require(isInstitution[entity] || isDoctor[entity], \"specified address must be institution/doctor\");\r\n\r\n        return entityHasAccessTo[entity];\r\n    }\r\n\r\n    // Return patient records if caller has access\r\n    function getRecords(address patient) public view returns(Record[] memory){\r\n        // Only institution and doctors can call this function\r\n        require(isInstitution[msg.sender] || isDoctor[msg.sender], \"caller must be institution/doctor\");\r\n\r\n        // Get patient access list\r\n        address[] memory patientAccList = accessList[patient];\r\n\r\n        // Caller must be in patient access list\r\n        for (uint i = 0; i < patientAccList.length; i++) {\r\n            if (patientAccList[i] == msg.sender) {\r\n                return records[patient];\r\n            }\r\n        }\r\n\r\n        // If caller not in patient access list, return empty list\r\n        Record[] memory emptyReturn; \r\n        return emptyReturn;\r\n    }\r\n\r\n    // Return all patient records to which caller has access !!! Costs a lot of gas and should only be used for debugging\r\n    function getAllRecords() public view returns(Record[] memory){\r\n        // Only institution and doctors can call this function\r\n        require(isInstitution[msg.sender] || isDoctor[msg.sender], \"caller must be institution/doctor\");\r\n\r\n        // Array containing all records\r\n        Record[] memory retRecords;\r\n        address[] memory entityAccess = entityHasAccessTo[msg.sender];\r\n\r\n        for (uint i = 0; i < entityAccess.length; i++) {\r\n            Record[] memory patientRecords = records[entityAccess[i]];\r\n            Record[] memory auxRecords = retRecords;\r\n\r\n            retRecords = new Record[](auxRecords.length + patientRecords.length);\r\n\r\n            for (uint j = 0; j < auxRecords.length; j++) {\r\n                retRecords[j] = auxRecords[j];\r\n            }\r\n\r\n            for (uint j = 0; j < patientRecords.length; j++) {\r\n                retRecords[j + auxRecords.length] = patientRecords[j];\r\n            }\r\n        }\r\n\r\n        return retRecords;\r\n    }\r\n}",
  "sourcePath": "D:\\Licenta\\Project\\HealthBlock\\HealthBlock\\src\\contracts\\HealthBlock.sol",
  "compiler": {
    "name": "solc",
    "version": "0.5.16+commit.9c3226ce.Emscripten.clang"
  },
  "schemaVersion": "3.4.7",
  "updatedAt": "2022-05-01T08:43:17.266Z",
  "devdoc": {
    "methods": {}
  },
  "userdoc": {
    "methods": {}
  }
}