{
  "contractName": "HealthBlock",
  "abi": [
    {
      "constant": true,
      "inputs": [
        {
          "internalType": "address",
          "name": "",
          "type": "address"
        },
        {
          "internalType": "uint256",
          "name": "",
          "type": "uint256"
        }
      ],
      "name": "accessList",
      "outputs": [
        {
          "internalType": "address",
          "name": "",
          "type": "address"
        }
      ],
      "payable": false,
      "stateMutability": "view",
      "type": "function"
    },
    {
      "constant": true,
      "inputs": [
        {
          "internalType": "uint256",
          "name": "",
          "type": "uint256"
        }
      ],
      "name": "doctors",
      "outputs": [
        {
          "internalType": "address",
          "name": "",
          "type": "address"
        }
      ],
      "payable": false,
      "stateMutability": "view",
      "type": "function"
    },
    {
      "constant": true,
      "inputs": [
        {
          "internalType": "uint256",
          "name": "",
          "type": "uint256"
        }
      ],
      "name": "institutions",
      "outputs": [
        {
          "internalType": "address",
          "name": "institutionAddress",
          "type": "address"
        },
        {
          "internalType": "string",
          "name": "name",
          "type": "string"
        },
        {
          "internalType": "string",
          "name": "link",
          "type": "string"
        }
      ],
      "payable": false,
      "stateMutability": "view",
      "type": "function"
    },
    {
      "constant": true,
      "inputs": [
        {
          "internalType": "address",
          "name": "",
          "type": "address"
        }
      ],
      "name": "isDoctor",
      "outputs": [
        {
          "internalType": "bool",
          "name": "",
          "type": "bool"
        }
      ],
      "payable": false,
      "stateMutability": "view",
      "type": "function"
    },
    {
      "constant": true,
      "inputs": [
        {
          "internalType": "address",
          "name": "",
          "type": "address"
        }
      ],
      "name": "isInstitution",
      "outputs": [
        {
          "internalType": "bool",
          "name": "",
          "type": "bool"
        }
      ],
      "payable": false,
      "stateMutability": "view",
      "type": "function"
    },
    {
      "constant": true,
      "inputs": [
        {
          "internalType": "address",
          "name": "",
          "type": "address"
        }
      ],
      "name": "isPatient",
      "outputs": [
        {
          "internalType": "bool",
          "name": "",
          "type": "bool"
        }
      ],
      "payable": false,
      "stateMutability": "view",
      "type": "function"
    },
    {
      "constant": true,
      "inputs": [],
      "name": "name",
      "outputs": [
        {
          "internalType": "string",
          "name": "",
          "type": "string"
        }
      ],
      "payable": false,
      "stateMutability": "view",
      "type": "function"
    },
    {
      "constant": true,
      "inputs": [
        {
          "internalType": "uint256",
          "name": "",
          "type": "uint256"
        }
      ],
      "name": "patients",
      "outputs": [
        {
          "internalType": "address",
          "name": "",
          "type": "address"
        }
      ],
      "payable": false,
      "stateMutability": "view",
      "type": "function"
    },
    {
      "constant": true,
      "inputs": [
        {
          "internalType": "address",
          "name": "",
          "type": "address"
        },
        {
          "internalType": "uint256",
          "name": "",
          "type": "uint256"
        }
      ],
      "name": "records",
      "outputs": [
        {
          "internalType": "address",
          "name": "institution",
          "type": "address"
        },
        {
          "internalType": "address",
          "name": "doctor",
          "type": "address"
        },
        {
          "internalType": "string",
          "name": "timestamp",
          "type": "string"
        },
        {
          "internalType": "string",
          "name": "link",
          "type": "string"
        }
      ],
      "payable": false,
      "stateMutability": "view",
      "type": "function"
    },
    {
      "constant": false,
      "inputs": [],
      "name": "registerPatient",
      "outputs": [],
      "payable": false,
      "stateMutability": "nonpayable",
      "type": "function"
    },
    {
      "constant": false,
      "inputs": [
        {
          "internalType": "string",
          "name": "_name",
          "type": "string"
        },
        {
          "internalType": "string",
          "name": "link",
          "type": "string"
        }
      ],
      "name": "registerInstitution",
      "outputs": [],
      "payable": false,
      "stateMutability": "nonpayable",
      "type": "function"
    },
    {
      "constant": false,
      "inputs": [],
      "name": "registerDoctor",
      "outputs": [],
      "payable": false,
      "stateMutability": "nonpayable",
      "type": "function"
    },
    {
      "constant": false,
      "inputs": [
        {
          "internalType": "address",
          "name": "patient",
          "type": "address"
        },
        {
          "internalType": "address",
          "name": "doctor",
          "type": "address"
        },
        {
          "internalType": "string",
          "name": "timestamp",
          "type": "string"
        },
        {
          "internalType": "string",
          "name": "link",
          "type": "string"
        }
      ],
      "name": "addRecord",
      "outputs": [],
      "payable": false,
      "stateMutability": "nonpayable",
      "type": "function"
    },
    {
      "constant": false,
      "inputs": [
        {
          "internalType": "address",
          "name": "entity",
          "type": "address"
        }
      ],
      "name": "shareRecords",
      "outputs": [],
      "payable": false,
      "stateMutability": "nonpayable",
      "type": "function"
    },
    {
      "constant": true,
      "inputs": [
        {
          "internalType": "address",
          "name": "patient",
          "type": "address"
        }
      ],
      "name": "getRecords",
      "outputs": [
        {
          "components": [
            {
              "internalType": "address",
              "name": "institution",
              "type": "address"
            },
            {
              "internalType": "address",
              "name": "doctor",
              "type": "address"
            },
            {
              "internalType": "string",
              "name": "timestamp",
              "type": "string"
            },
            {
              "internalType": "string",
              "name": "link",
              "type": "string"
            }
          ],
          "internalType": "struct HealthBlock.Record[]",
          "name": "",
          "type": "tuple[]"
        }
      ],
      "payable": false,
      "stateMutability": "view",
      "type": "function"
    }
  ],
  "bytecode": "0x60806040526040518060400160405280600b81526020017f4865616c7468426c6f636b000000000000000000000000000000000000000000815250600090805190602001906200005192919062000066565b503480156200005f57600080fd5b5062000115565b828054600181600116156101000203166002900490600052602060002090601f016020900481019282601f10620000a957805160ff1916838001178555620000da565b82800160010185558215620000da579182015b82811115620000d9578251825591602001919060010190620000bc565b5b509050620000e99190620000ed565b5090565b6200011291905b808211156200010e576000816000905550600101620000f4565b5090565b90565b61219c80620001256000396000f3fe608060405234801561001057600080fd5b50600436106100f55760003560e01c8063822d388511610097578063996440c611610066578063996440c614610287578063a0076e84146102b7578063c3b59d00146102e7578063c6b5c5cc14610319576100f5565b8063822d3885146101ea57806382a6c0ac146101f45780638f9c79ed1461022757806393119a8314610257576100f5565b806338d0cd9d116100d357806338d0cd9d146101525780636efb1b841461016e57806370c2b4191461019e5780637e14f234146101ce576100f5565b80630331df07146100fa57806306fdde031461012a5780631a1984de14610148575b600080fd5b610114600480360361010f919081019061188e565b610335565b6040516101219190611eb4565b60405180910390f35b610132610355565b60405161013f9190611ecf565b60405180910390f35b6101506103f3565b005b61016c600480360361016791908101906118b7565b61055d565b005b610188600480360361018391908101906119f2565b610889565b6040516101959190611ddf565b60405180910390f35b6101b860048036036101b3919081019061194a565b6108c5565b6040516101c59190611ddf565b60405180910390f35b6101e860048036036101e3919081019061188e565b610910565b005b6101f2610b22565b005b61020e6004803603610209919081019061194a565b610c8c565b60405161021e9493929190611dfa565b60405180910390f35b610241600480360361023c919081019061188e565b610e46565b60405161024e9190611eb4565b60405180910390f35b610271600480360361026c91908101906119f2565b610e66565b60405161027e9190611ddf565b60405180910390f35b6102a1600480360361029c919081019061188e565b610ea2565b6040516102ae9190611eb4565b60405180910390f35b6102d160048036036102cc919081019061188e565b610ec2565b6040516102de9190611e92565b60405180910390f35b61030160048036036102fc91908101906119f2565b6113a6565b60405161031093929190611e4d565b60405180910390f35b610333600480360361032e9190810190611986565b61152d565b005b60046020528060005260406000206000915054906101000a900460ff1681565b60008054600181600116156101000203166002900480601f0160208091040260200160405190810160405280929190818152602001828054600181600116156101000203166002900480156103eb5780601f106103c0576101008083540402835291602001916103eb565b820191906000526020600020905b8154815290600101906020018083116103ce57829003601f168201915b505050505081565b600460003373ffffffffffffffffffffffffffffffffffffffff1673ffffffffffffffffffffffffffffffffffffffff16815260200190815260200160002060009054906101000a900460ff161580156104975750600660003373ffffffffffffffffffffffffffffffffffffffff1673ffffffffffffffffffffffffffffffffffffffff16815260200190815260200160002060009054906101000a900460ff16155b1561055b576001600660003373ffffffffffffffffffffffffffffffffffffffff1673ffffffffffffffffffffffffffffffffffffffff16815260200190815260200160002060006101000a81548160ff02191690831515021790555060033390806001815401808255809150509060018203906000526020600020016000909192909190916101000a81548173ffffffffffffffffffffffffffffffffffffffff021916908373ffffffffffffffffffffffffffffffffffffffff160217905550505b565b600460003373ffffffffffffffffffffffffffffffffffffffff1673ffffffffffffffffffffffffffffffffffffffff16815260200190815260200160002060009054906101000a900460ff166105e9576040517f08c379a00000000000000000000000000000000000000000000000000000000081526004016105e090611f31565b60405180910390fd5b600560008573ffffffffffffffffffffffffffffffffffffffff1673ffffffffffffffffffffffffffffffffffffffff16815260200190815260200160002060009054906101000a900460ff16610675576040517f08c379a000000000000000000000000000000000000000000000000000000000815260040161066c90611f51565b60405180910390fd5b600660008473ffffffffffffffffffffffffffffffffffffffff1673ffffffffffffffffffffffffffffffffffffffff16815260200190815260200160002060009054906101000a900460ff16610701576040517f08c379a00000000000000000000000000000000000000000000000000000000081526004016106f890611fb1565b60405180910390fd5b600860008573ffffffffffffffffffffffffffffffffffffffff1673ffffffffffffffffffffffffffffffffffffffff16815260200190815260200160002060405180608001604052803373ffffffffffffffffffffffffffffffffffffffff1681526020018573ffffffffffffffffffffffffffffffffffffffff168152602001848152602001838152509080600181540180825580915050906001820390600052602060002090600402016000909192909190915060008201518160000160006101000a81548173ffffffffffffffffffffffffffffffffffffffff021916908373ffffffffffffffffffffffffffffffffffffffff16021790555060208201518160010160006101000a81548173ffffffffffffffffffffffffffffffffffffffff021916908373ffffffffffffffffffffffffffffffffffffffff160217905550604082015181600201908051906020019061086292919061176b565b50606082015181600301908051906020019061087f92919061176b565b5050505050505050565b6003818154811061089657fe5b906000526020600020016000915054906101000a900473ffffffffffffffffffffffffffffffffffffffff1681565b600760205281600052604060002081815481106108de57fe5b906000526020600020016000915091509054906101000a900473ffffffffffffffffffffffffffffffffffffffff1681565b600560003373ffffffffffffffffffffffffffffffffffffffff1673ffffffffffffffffffffffffffffffffffffffff16815260200190815260200160002060009054906101000a900460ff1661099c576040517f08c379a000000000000000000000000000000000000000000000000000000000815260040161099390611ef1565b60405180910390fd5b600460008273ffffffffffffffffffffffffffffffffffffffff1673ffffffffffffffffffffffffffffffffffffffff16815260200190815260200160002060009054906101000a900460ff1680610a3d5750600660008273ffffffffffffffffffffffffffffffffffffffff1673ffffffffffffffffffffffffffffffffffffffff16815260200190815260200160002060009054906101000a900460ff165b610a7c576040517f08c379a0000000000000000000000000000000000000000000000000000000008152600401610a7390611f91565b60405180910390fd5b600760003373ffffffffffffffffffffffffffffffffffffffff1673ffffffffffffffffffffffffffffffffffffffff1681526020019081526020016000208190806001815401808255809150509060018203906000526020600020016000909192909190916101000a81548173ffffffffffffffffffffffffffffffffffffffff021916908373ffffffffffffffffffffffffffffffffffffffff1602179055505050565b600460003373ffffffffffffffffffffffffffffffffffffffff1673ffffffffffffffffffffffffffffffffffffffff16815260200190815260200160002060009054906101000a900460ff16158015610bc65750600560003373ffffffffffffffffffffffffffffffffffffffff1673ffffffffffffffffffffffffffffffffffffffff16815260200190815260200160002060009054906101000a900460ff16155b15610c8a576001600560003373ffffffffffffffffffffffffffffffffffffffff1673ffffffffffffffffffffffffffffffffffffffff16815260200190815260200160002060006101000a81548160ff02191690831515021790555060023390806001815401808255809150509060018203906000526020600020016000909192909190916101000a81548173ffffffffffffffffffffffffffffffffffffffff021916908373ffffffffffffffffffffffffffffffffffffffff160217905550505b565b60086020528160005260406000208181548110610ca557fe5b9060005260206000209060040201600091509150508060000160009054906101000a900473ffffffffffffffffffffffffffffffffffffffff16908060010160009054906101000a900473ffffffffffffffffffffffffffffffffffffffff1690806002018054600181600116156101000203166002900480601f016020809104026020016040519081016040528092919081815260200182805460018160011615610100020316600290048015610d9e5780601f10610d7357610100808354040283529160200191610d9e565b820191906000526020600020905b815481529060010190602001808311610d8157829003601f168201915b505050505090806003018054600181600116156101000203166002900480601f016020809104026020016040519081016040528092919081815260200182805460018160011615610100020316600290048015610e3c5780601f10610e1157610100808354040283529160200191610e3c565b820191906000526020600020905b815481529060010190602001808311610e1f57829003601f168201915b5050505050905084565b60056020528060005260406000206000915054906101000a900460ff1681565b60028181548110610e7357fe5b906000526020600020016000915054906101000a900473ffffffffffffffffffffffffffffffffffffffff1681565b60066020528060005260406000206000915054906101000a900460ff1681565b6060600460003373ffffffffffffffffffffffffffffffffffffffff1673ffffffffffffffffffffffffffffffffffffffff16815260200190815260200160002060009054906101000a900460ff1680610f655750600660003373ffffffffffffffffffffffffffffffffffffffff1673ffffffffffffffffffffffffffffffffffffffff16815260200190815260200160002060009054906101000a900460ff165b610fa4576040517f08c379a0000000000000000000000000000000000000000000000000000000008152600401610f9b90611f11565b60405180910390fd5b6060600760008473ffffffffffffffffffffffffffffffffffffffff1673ffffffffffffffffffffffffffffffffffffffff16815260200190815260200160002080548060200260200160405190810160405280929190818152602001828054801561106557602002820191906000526020600020905b8160009054906101000a900473ffffffffffffffffffffffffffffffffffffffff1673ffffffffffffffffffffffffffffffffffffffff168152602001906001019080831161101b575b5050505050905060008090505b815181101561135d573373ffffffffffffffffffffffffffffffffffffffff1682828151811061109e57fe5b602002602001015173ffffffffffffffffffffffffffffffffffffffff16141561135057600860008573ffffffffffffffffffffffffffffffffffffffff1673ffffffffffffffffffffffffffffffffffffffff168152602001908152602001600020805480602002602001604051908101604052809291908181526020016000905b8282101561134357838290600052602060002090600402016040518060800160405290816000820160009054906101000a900473ffffffffffffffffffffffffffffffffffffffff1673ffffffffffffffffffffffffffffffffffffffff1673ffffffffffffffffffffffffffffffffffffffff1681526020016001820160009054906101000a900473ffffffffffffffffffffffffffffffffffffffff1673ffffffffffffffffffffffffffffffffffffffff1673ffffffffffffffffffffffffffffffffffffffff168152602001600282018054600181600116156101000203166002900480601f0160208091040260200160405190810160405280929190818152602001828054600181600116156101000203166002900480156112895780601f1061125e57610100808354040283529160200191611289565b820191906000526020600020905b81548152906001019060200180831161126c57829003601f168201915b50505050508152602001600382018054600181600116156101000203166002900480601f01602080910402602001604051908101604052809291908181526020018280546001816001161561010002031660029004801561132b5780601f106113005761010080835404028352916020019161132b565b820191906000526020600020905b81548152906001019060200180831161130e57829003601f168201915b50505050508152505081526020019060010190611121565b50505050925050506113a1565b8080600101915050611072565b50600061139f576040517f08c379a000000000000000000000000000000000000000000000000000000000815260040161139690611f71565b60405180910390fd5b505b919050565b600181815481106113b357fe5b90600052602060002090600302016000915090508060000160009054906101000a900473ffffffffffffffffffffffffffffffffffffffff1690806001018054600181600116156101000203166002900480601f0160208091040260200160405190810160405280929190818152602001828054600181600116156101000203166002900480156114855780601f1061145a57610100808354040283529160200191611485565b820191906000526020600020905b81548152906001019060200180831161146857829003601f168201915b505050505090806002018054600181600116156101000203166002900480601f0160208091040260200160405190810160405280929190818152602001828054600181600116156101000203166002900480156115235780601f106114f857610100808354040283529160200191611523565b820191906000526020600020905b81548152906001019060200180831161150657829003601f168201915b5050505050905083565b600460003373ffffffffffffffffffffffffffffffffffffffff1673ffffffffffffffffffffffffffffffffffffffff16815260200190815260200160002060009054906101000a900460ff161580156115d15750600560003373ffffffffffffffffffffffffffffffffffffffff1673ffffffffffffffffffffffffffffffffffffffff16815260200190815260200160002060009054906101000a900460ff16155b80156116275750600660003373ffffffffffffffffffffffffffffffffffffffff1673ffffffffffffffffffffffffffffffffffffffff16815260200190815260200160002060009054906101000a900460ff16155b15611767576001600460003373ffffffffffffffffffffffffffffffffffffffff1673ffffffffffffffffffffffffffffffffffffffff16815260200190815260200160002060006101000a81548160ff021916908315150217905550600160405180606001604052803373ffffffffffffffffffffffffffffffffffffffff168152602001848152602001838152509080600181540180825580915050906001820390600052602060002090600302016000909192909190915060008201518160000160006101000a81548173ffffffffffffffffffffffffffffffffffffffff021916908373ffffffffffffffffffffffffffffffffffffffff160217905550602082015181600101908051906020019061174592919061176b565b50604082015181600201908051906020019061176292919061176b565b505050505b5050565b828054600181600116156101000203166002900490600052602060002090601f016020900481019282601f106117ac57805160ff19168380011785556117da565b828001600101855582156117da579182015b828111156117d95782518255916020019190600101906117be565b5b5090506117e791906117eb565b5090565b61180d91905b808211156118095760008160009055506001016117f1565b5090565b90565b60008135905061181f8161212b565b92915050565b600082601f83011261183657600080fd5b813561184961184482611ffe565b611fd1565b9150808252602083016020830185838301111561186557600080fd5b6118708382846120d8565b50505092915050565b60008135905061188881612142565b92915050565b6000602082840312156118a057600080fd5b60006118ae84828501611810565b91505092915050565b600080600080608085870312156118cd57600080fd5b60006118db87828801611810565b94505060206118ec87828801611810565b935050604085013567ffffffffffffffff81111561190957600080fd5b61191587828801611825565b925050606085013567ffffffffffffffff81111561193257600080fd5b61193e87828801611825565b91505092959194509250565b6000806040838503121561195d57600080fd5b600061196b85828601611810565b925050602061197c85828601611879565b9150509250929050565b6000806040838503121561199957600080fd5b600083013567ffffffffffffffff8111156119b357600080fd5b6119bf85828601611825565b925050602083013567ffffffffffffffff8111156119dc57600080fd5b6119e885828601611825565b9150509250929050565b600060208284031215611a0457600080fd5b6000611a1284828501611879565b91505092915050565b6000611a278383611d75565b905092915050565b611a3881612090565b82525050565b611a4781612090565b82525050565b6000611a588261203a565b611a62818561205d565b935083602082028501611a748561202a565b8060005b85811015611ab05784840389528151611a918582611a1b565b9450611a9c83612050565b925060208a01995050600181019050611a78565b50829750879550505050505092915050565b611acb816120a2565b82525050565b6000611adc82612045565b611ae6818561206e565b9350611af68185602086016120e7565b611aff8161211a565b840191505092915050565b6000611b1582612045565b611b1f818561207f565b9350611b2f8185602086016120e7565b611b388161211a565b840191505092915050565b6000611b5060168361207f565b91507f63616c6c6572206d7573742062652070617469656e74000000000000000000006000830152602082019050919050565b6000611b9060218361207f565b91507f63616c6c6572206d75737420626520696e737469747574696f6e2f646f63746f60008301527f72000000000000000000000000000000000000000000000000000000000000006020830152604082019050919050565b6000611bf6601a8361207f565b91507f63616c6c6572206d75737420626520696e737469747574696f6e0000000000006000830152602082019050919050565b6000611c3660158361207f565b91507f70617469656e74206d7573742062652076616c696400000000000000000000006000830152602082019050919050565b6000611c7660248361207f565b91507f63616c6c6572206973206e6f7420696e2070617469656e74206163636573732060008301527f6c697374000000000000000000000000000000000000000000000000000000006020830152604082019050919050565b6000611cdc60268361207f565b91507f63616e206f6e6c79207368617265207769746820696e737469747574696f6e2f60008301527f646f63746f7200000000000000000000000000000000000000000000000000006020830152604082019050919050565b6000611d4260148361207f565b91507f646f63746f72206d7573742062652076616c69640000000000000000000000006000830152602082019050919050565b6000608083016000830151611d8d6000860182611a2f565b506020830151611da06020860182611a2f565b5060408301518482036040860152611db88282611ad1565b91505060608301518482036060860152611dd28282611ad1565b9150508091505092915050565b6000602082019050611df46000830184611a3e565b92915050565b6000608082019050611e0f6000830187611a3e565b611e1c6020830186611a3e565b8181036040830152611e2e8185611b0a565b90508181036060830152611e428184611b0a565b905095945050505050565b6000606082019050611e626000830186611a3e565b8181036020830152611e748185611b0a565b90508181036040830152611e888184611b0a565b9050949350505050565b60006020820190508181036000830152611eac8184611a4d565b905092915050565b6000602082019050611ec96000830184611ac2565b92915050565b60006020820190508181036000830152611ee98184611b0a565b905092915050565b60006020820190508181036000830152611f0a81611b43565b9050919050565b60006020820190508181036000830152611f2a81611b83565b9050919050565b60006020820190508181036000830152611f4a81611be9565b9050919050565b60006020820190508181036000830152611f6a81611c29565b9050919050565b60006020820190508181036000830152611f8a81611c69565b9050919050565b60006020820190508181036000830152611faa81611ccf565b9050919050565b60006020820190508181036000830152611fca81611d35565b9050919050565b6000604051905081810181811067ffffffffffffffff82111715611ff457600080fd5b8060405250919050565b600067ffffffffffffffff82111561201557600080fd5b601f19601f8301169050602081019050919050565b6000819050602082019050919050565b600081519050919050565b600081519050919050565b6000602082019050919050565b600082825260208201905092915050565b600082825260208201905092915050565b600082825260208201905092915050565b600061209b826120ae565b9050919050565b60008115159050919050565b600073ffffffffffffffffffffffffffffffffffffffff82169050919050565b6000819050919050565b82818337600083830152505050565b60005b838110156121055780820151818401526020810190506120ea565b83811115612114576000848401525b50505050565b6000601f19601f8301169050919050565b61213481612090565b811461213f57600080fd5b50565b61214b816120ce565b811461215657600080fd5b5056fea365627a7a72315820cb102b954e350ab2ead2a98b08cc75e717f1d119918f793b25573db6efe162c26c6578706572696d656e74616cf564736f6c63430005100040",
  "source": "pragma solidity >=0.4.21 <0.6.0;\r\npragma experimental ABIEncoderV2;\r\n\r\ncontract HealthBlock {\r\n    struct Institution {\r\n        address institutionAddress;\r\n        string name;\r\n        string link;\r\n    }\r\n\r\n    struct Record {\r\n        address institution;\r\n        address doctor;\r\n        string timestamp;\r\n        string link;\r\n    }\r\n\r\n    string public name = \"HealthBlock\";\r\n\r\n    Institution[] public institutions;\r\n    address[] public patients;\r\n    address[] public doctors;\r\n    mapping(address => bool) public isInstitution;\r\n    mapping(address => bool) public isPatient;\r\n    mapping(address => bool) public isDoctor;\r\n    mapping(address => address[]) public accessList;\r\n    mapping(address => Record[]) public records;\r\n\r\n    // Register patient\r\n    function registerPatient() public {\r\n        // Add user to patients array if not an institution or existing patient\r\n        if (!isInstitution[msg.sender] && !isPatient[msg.sender]) {\r\n            isPatient[msg.sender] = true;\r\n            patients.push(msg.sender);\r\n        }\r\n    }\r\n\r\n    // Register institution\r\n    function registerInstitution(string memory _name, string memory link) public {\r\n        // Add user to institutions array if not a patient/doctor or existing institution\r\n        if (!isInstitution[msg.sender] && !isPatient[msg.sender] && !isDoctor[msg.sender]) {\r\n            isInstitution[msg.sender] = true;\r\n            institutions.push(Institution({institutionAddress: msg.sender, name: _name, link: link}));\r\n        }\r\n    }\r\n\r\n    // Register doctor\r\n    function registerDoctor() public {\r\n        // Add user to doctors array if not an institution or existing doctor\r\n        if (!isInstitution[msg.sender] && !isDoctor[msg.sender]) {\r\n            isDoctor[msg.sender] = true;\r\n            doctors.push(msg.sender);\r\n        }\r\n    }\r\n\r\n    // Add medical record\r\n    function addRecord(address patient, address doctor, string memory timestamp, string memory link) public {\r\n        // Only institutions can call this function\r\n        require(isInstitution[msg.sender], \"caller must be institution\");\r\n\r\n        // Patient and doctor must be valid\r\n        require(isPatient[patient], \"patient must be valid\");\r\n        require(isDoctor[doctor], \"doctor must be valid\");\r\n\r\n        // Should also check timestamp and link\r\n\r\n        // Add record to records array if patient and doctor are valid\r\n        records[patient].push(Record({institution: msg.sender, doctor: doctor, timestamp: timestamp, link: link}));\r\n    }\r\n\r\n    // MUST CHECK NOT TO ADD TWICE\r\n    // Share patient records with institution/doctor\r\n    function shareRecords(address entity) public {\r\n        // Only patients can call this function\r\n        require(isPatient[msg.sender], \"caller must be patient\");\r\n\r\n        // Can only share record with institution/doctor\r\n        require(isInstitution[entity] || isDoctor[entity], \"can only share with institution/doctor\");\r\n\r\n        // Add entity to user access list\r\n        accessList[msg.sender].push(entity);\r\n    }\r\n\r\n    // Return patient records if caller has access\r\n    function getRecords(address patient) public view returns(Record[] memory){\r\n        // Only institution and doctors can call this function\r\n        require(isInstitution[msg.sender] || isDoctor[msg.sender], \"caller must be institution/doctor\");\r\n\r\n        // Get patient access list\r\n        address[] memory patientAccList = accessList[patient];\r\n\r\n        // Caller must be in patient access list\r\n        for (uint i = 0; i < patientAccList.length; i++) {\r\n            if (patientAccList[i] == msg.sender) {\r\n                return records[patient];\r\n            }\r\n        }\r\n\r\n        require(false, \"caller is not in patient access list\");\r\n    }\r\n\r\n    // Return all patient records to which caller has access\r\n\r\n}",
  "sourcePath": "D:\\Licenta\\Project\\HealthBlock\\HealthBlock\\src\\contracts\\HealthBlock.sol",
  "compiler": {
    "name": "solc",
    "version": "0.5.16+commit.9c3226ce.Emscripten.clang"
  },
  "schemaVersion": "3.4.7",
  "updatedAt": "2022-04-30T19:18:13.598Z",
  "devdoc": {
    "methods": {}
  },
  "userdoc": {
    "methods": {}
  }
}