{
  "contractName": "HealthBlock",
  "abi": [
    {
      "constant": true,
      "inputs": [
        {
          "internalType": "uint256",
          "name": "",
          "type": "uint256"
        }
      ],
      "name": "doctors",
      "outputs": [
        {
          "internalType": "address",
          "name": "",
          "type": "address"
        }
      ],
      "payable": false,
      "stateMutability": "view",
      "type": "function"
    },
    {
      "constant": true,
      "inputs": [
        {
          "internalType": "uint256",
          "name": "",
          "type": "uint256"
        }
      ],
      "name": "institutions",
      "outputs": [
        {
          "internalType": "address",
          "name": "institutionAddress",
          "type": "address"
        },
        {
          "internalType": "string",
          "name": "name",
          "type": "string"
        },
        {
          "internalType": "string",
          "name": "link",
          "type": "string"
        }
      ],
      "payable": false,
      "stateMutability": "view",
      "type": "function"
    },
    {
      "constant": true,
      "inputs": [
        {
          "internalType": "address",
          "name": "",
          "type": "address"
        }
      ],
      "name": "isDoctor",
      "outputs": [
        {
          "internalType": "bool",
          "name": "",
          "type": "bool"
        }
      ],
      "payable": false,
      "stateMutability": "view",
      "type": "function"
    },
    {
      "constant": true,
      "inputs": [
        {
          "internalType": "address",
          "name": "",
          "type": "address"
        }
      ],
      "name": "isInstitution",
      "outputs": [
        {
          "internalType": "bool",
          "name": "",
          "type": "bool"
        }
      ],
      "payable": false,
      "stateMutability": "view",
      "type": "function"
    },
    {
      "constant": true,
      "inputs": [
        {
          "internalType": "address",
          "name": "",
          "type": "address"
        }
      ],
      "name": "isPatient",
      "outputs": [
        {
          "internalType": "bool",
          "name": "",
          "type": "bool"
        }
      ],
      "payable": false,
      "stateMutability": "view",
      "type": "function"
    },
    {
      "constant": true,
      "inputs": [],
      "name": "name",
      "outputs": [
        {
          "internalType": "string",
          "name": "",
          "type": "string"
        }
      ],
      "payable": false,
      "stateMutability": "view",
      "type": "function"
    },
    {
      "constant": true,
      "inputs": [
        {
          "internalType": "uint256",
          "name": "",
          "type": "uint256"
        }
      ],
      "name": "patients",
      "outputs": [
        {
          "internalType": "address",
          "name": "",
          "type": "address"
        }
      ],
      "payable": false,
      "stateMutability": "view",
      "type": "function"
    },
    {
      "constant": false,
      "inputs": [],
      "name": "registerPatient",
      "outputs": [],
      "payable": false,
      "stateMutability": "nonpayable",
      "type": "function"
    },
    {
      "constant": false,
      "inputs": [
        {
          "internalType": "string",
          "name": "_name",
          "type": "string"
        },
        {
          "internalType": "string",
          "name": "link",
          "type": "string"
        }
      ],
      "name": "registerInstitution",
      "outputs": [],
      "payable": false,
      "stateMutability": "nonpayable",
      "type": "function"
    },
    {
      "constant": false,
      "inputs": [],
      "name": "registerDoctor",
      "outputs": [],
      "payable": false,
      "stateMutability": "nonpayable",
      "type": "function"
    },
    {
      "constant": false,
      "inputs": [
        {
          "internalType": "address",
          "name": "patient",
          "type": "address"
        },
        {
          "internalType": "address",
          "name": "doctor",
          "type": "address"
        },
        {
          "internalType": "string",
          "name": "timestamp",
          "type": "string"
        },
        {
          "internalType": "string",
          "name": "link",
          "type": "string"
        }
      ],
      "name": "addRecord",
      "outputs": [],
      "payable": false,
      "stateMutability": "nonpayable",
      "type": "function"
    },
    {
      "constant": false,
      "inputs": [
        {
          "internalType": "address",
          "name": "entity",
          "type": "address"
        }
      ],
      "name": "shareRecords",
      "outputs": [],
      "payable": false,
      "stateMutability": "nonpayable",
      "type": "function"
    },
    {
      "constant": false,
      "inputs": [
        {
          "internalType": "address",
          "name": "entity",
          "type": "address"
        }
      ],
      "name": "unshareRecords",
      "outputs": [],
      "payable": false,
      "stateMutability": "nonpayable",
      "type": "function"
    },
    {
      "constant": true,
      "inputs": [
        {
          "internalType": "address",
          "name": "patient",
          "type": "address"
        }
      ],
      "name": "getPatientAccessList",
      "outputs": [
        {
          "internalType": "address[]",
          "name": "",
          "type": "address[]"
        }
      ],
      "payable": false,
      "stateMutability": "view",
      "type": "function"
    },
    {
      "constant": true,
      "inputs": [
        {
          "internalType": "address",
          "name": "entity",
          "type": "address"
        }
      ],
      "name": "getAccessablePatients",
      "outputs": [
        {
          "internalType": "address[]",
          "name": "",
          "type": "address[]"
        }
      ],
      "payable": false,
      "stateMutability": "view",
      "type": "function"
    },
    {
      "constant": true,
      "inputs": [
        {
          "internalType": "address",
          "name": "patient",
          "type": "address"
        }
      ],
      "name": "getRecords",
      "outputs": [
        {
          "components": [
            {
              "internalType": "address",
              "name": "institution",
              "type": "address"
            },
            {
              "internalType": "address",
              "name": "doctor",
              "type": "address"
            },
            {
              "internalType": "address",
              "name": "patient",
              "type": "address"
            },
            {
              "internalType": "string",
              "name": "timestamp",
              "type": "string"
            },
            {
              "internalType": "string",
              "name": "link",
              "type": "string"
            }
          ],
          "internalType": "struct HealthBlock.Record[]",
          "name": "",
          "type": "tuple[]"
        }
      ],
      "payable": false,
      "stateMutability": "view",
      "type": "function"
    },
    {
      "constant": true,
      "inputs": [],
      "name": "getAllRecords",
      "outputs": [
        {
          "components": [
            {
              "internalType": "address",
              "name": "institution",
              "type": "address"
            },
            {
              "internalType": "address",
              "name": "doctor",
              "type": "address"
            },
            {
              "internalType": "address",
              "name": "patient",
              "type": "address"
            },
            {
              "internalType": "string",
              "name": "timestamp",
              "type": "string"
            },
            {
              "internalType": "string",
              "name": "link",
              "type": "string"
            }
          ],
          "internalType": "struct HealthBlock.Record[]",
          "name": "",
          "type": "tuple[]"
        }
      ],
      "payable": false,
      "stateMutability": "view",
      "type": "function"
    }
  ],
  "bytecode": "0x60806040526040518060400160405280600b81526020017f4865616c7468426c6f636b000000000000000000000000000000000000000000815250600090805190602001906200005192919062000066565b503480156200005f57600080fd5b5062000115565b828054600181600116156101000203166002900490600052602060002090601f016020900481019282601f10620000a957805160ff1916838001178555620000da565b82800160010185558215620000da579182015b82811115620000d9578251825591602001919060010190620000bc565b5b509050620000e99190620000ed565b5090565b6200011291905b808211156200010e576000816000905550600101620000f4565b5090565b90565b613a1680620001256000396000f3fe608060405234801561001057600080fd5b506004361061010b5760003560e01c8063822d3885116100a2578063a0076e8411610071578063a0076e84146102b6578063a7f9fe72146102e6578063c3b59d0014610304578063c6b5c5cc14610336578063eff0126d146103525761010b565b8063822d38851461021c5780638f9c79ed1461022657806393119a8314610256578063996440c6146102865761010b565b80636651390a116100de5780636651390a146101845780636efb1b84146101b45780637e14f234146101e45780637eb06605146102005761010b565b80630331df071461011057806306fdde03146101405780631a1984de1461015e57806338d0cd9d14610168575b600080fd5b61012a6004803603610125919081019061302d565b610382565b60405161013791906136d5565b60405180910390f35b6101486103a2565b60405161015591906136f0565b60405180910390f35b610166610440565b005b610182600480360361017d9190810190613056565b610600565b005b61019e6004803603610199919081019061302d565b610b3a565b6040516101ab9190613691565b60405180910390f35b6101ce60048036036101c99190810190613155565b610ce7565b6040516101db9190613631565b60405180910390f35b6101fe60048036036101f9919081019061302d565b610d23565b005b61021a6004803603610215919081019061302d565b61111e565b005b6102246117df565b005b610240600480360361023b919081019061302d565b61199f565b60405161024d91906136d5565b60405180910390f35b610270600480360361026b9190810190613155565b6119bf565b60405161027d9190613631565b60405180910390f35b6102a0600480360361029b919081019061302d565b6119fb565b6040516102ad91906136d5565b60405180910390f35b6102d060048036036102cb919081019061302d565b611a1b565b6040516102dd91906136b3565b60405180910390f35b6102ee612230565b6040516102fb91906136b3565b60405180910390f35b61031e60048036036103199190810190613155565b6127cd565b60405161032d9392919061364c565b60405180910390f35b610350600480360361034b91908101906130e9565b612954565b005b61036c6004803603610367919081019061302d565b612b92565b6040516103799190613691565b60405180910390f35b60046020528060005260406000206000915054906101000a900460ff1681565b60008054600181600116156101000203166002900480601f0160208091040260200160405190810160405280929190818152602001828054600181600116156101000203166002900480156104385780601f1061040d57610100808354040283529160200191610438565b820191906000526020600020905b81548152906001019060200180831161041b57829003601f168201915b505050505081565b600460003373ffffffffffffffffffffffffffffffffffffffff1673ffffffffffffffffffffffffffffffffffffffff16815260200190815260200160002060009054906101000a900460ff161580156104e45750600560003373ffffffffffffffffffffffffffffffffffffffff1673ffffffffffffffffffffffffffffffffffffffff16815260200190815260200160002060009054906101000a900460ff16155b801561053a5750600660003373ffffffffffffffffffffffffffffffffffffffff1673ffffffffffffffffffffffffffffffffffffffff16815260200190815260200160002060009054906101000a900460ff16155b156105fe576001600660003373ffffffffffffffffffffffffffffffffffffffff1673ffffffffffffffffffffffffffffffffffffffff16815260200190815260200160002060006101000a81548160ff02191690831515021790555060033390806001815401808255809150509060018203906000526020600020016000909192909190916101000a81548173ffffffffffffffffffffffffffffffffffffffff021916908373ffffffffffffffffffffffffffffffffffffffff160217905550505b565b600460003373ffffffffffffffffffffffffffffffffffffffff1673ffffffffffffffffffffffffffffffffffffffff16815260200190815260200160002060009054906101000a900460ff1661068c576040517f08c379a000000000000000000000000000000000000000000000000000000000815260040161068390613772565b60405180910390fd5b600560008573ffffffffffffffffffffffffffffffffffffffff1673ffffffffffffffffffffffffffffffffffffffff16815260200190815260200160002060009054906101000a900460ff16610718576040517f08c379a000000000000000000000000000000000000000000000000000000000815260040161070f90613792565b60405180910390fd5b6060600760008673ffffffffffffffffffffffffffffffffffffffff1673ffffffffffffffffffffffffffffffffffffffff1681526020019081526020016000208054806020026020016040519081016040528092919081815260200182805480156107d957602002820191906000526020600020905b8160009054906101000a900473ffffffffffffffffffffffffffffffffffffffff1673ffffffffffffffffffffffffffffffffffffffff168152602001906001019080831161078f575b5050505050905060008090505b8151811015610af0573373ffffffffffffffffffffffffffffffffffffffff1682828151811061081257fe5b602002602001015173ffffffffffffffffffffffffffffffffffffffff161415610ae357600073ffffffffffffffffffffffffffffffffffffffff168573ffffffffffffffffffffffffffffffffffffffff16146108f757600660008673ffffffffffffffffffffffffffffffffffffffff1673ffffffffffffffffffffffffffffffffffffffff16815260200190815260200160002060009054906101000a900460ff166108f6576040517f08c379a00000000000000000000000000000000000000000000000000000000081526004016108ed906137d2565b60405180910390fd5b5b600860008773ffffffffffffffffffffffffffffffffffffffff1673ffffffffffffffffffffffffffffffffffffffff1681526020019081526020016000206040518060a001604052803373ffffffffffffffffffffffffffffffffffffffff1681526020018773ffffffffffffffffffffffffffffffffffffffff1681526020018873ffffffffffffffffffffffffffffffffffffffff168152602001868152602001858152509080600181540180825580915050906001820390600052602060002090600502016000909192909190915060008201518160000160006101000a81548173ffffffffffffffffffffffffffffffffffffffff021916908373ffffffffffffffffffffffffffffffffffffffff16021790555060208201518160010160006101000a81548173ffffffffffffffffffffffffffffffffffffffff021916908373ffffffffffffffffffffffffffffffffffffffff16021790555060408201518160020160006101000a81548173ffffffffffffffffffffffffffffffffffffffff021916908373ffffffffffffffffffffffffffffffffffffffff1602179055506060820151816003019080519060200190610abb929190612e99565b506080820151816004019080519060200190610ad8929190612e99565b505050505050610b34565b80806001019150506107e6565b506000610b32576040517f08c379a0000000000000000000000000000000000000000000000000000000008152600401610b2990613752565b60405180910390fd5b505b50505050565b6060600460008373ffffffffffffffffffffffffffffffffffffffff1673ffffffffffffffffffffffffffffffffffffffff16815260200190815260200160002060009054906101000a900460ff1680610bdd5750600660008373ffffffffffffffffffffffffffffffffffffffff1673ffffffffffffffffffffffffffffffffffffffff16815260200190815260200160002060009054906101000a900460ff165b610c1c576040517f08c379a0000000000000000000000000000000000000000000000000000000008152600401610c13906137f2565b60405180910390fd5b600960008373ffffffffffffffffffffffffffffffffffffffff1673ffffffffffffffffffffffffffffffffffffffff168152602001908152602001600020805480602002602001604051908101604052809291908181526020018280548015610cdb57602002820191906000526020600020905b8160009054906101000a900473ffffffffffffffffffffffffffffffffffffffff1673ffffffffffffffffffffffffffffffffffffffff1681526020019060010190808311610c91575b50505050509050919050565b60038181548110610cf457fe5b906000526020600020016000915054906101000a900473ffffffffffffffffffffffffffffffffffffffff1681565b600560003373ffffffffffffffffffffffffffffffffffffffff1673ffffffffffffffffffffffffffffffffffffffff16815260200190815260200160002060009054906101000a900460ff16610daf576040517f08c379a0000000000000000000000000000000000000000000000000000000008152600401610da690613712565b60405180910390fd5b600460008273ffffffffffffffffffffffffffffffffffffffff1673ffffffffffffffffffffffffffffffffffffffff16815260200190815260200160002060009054906101000a900460ff1680610e505750600660008273ffffffffffffffffffffffffffffffffffffffff1673ffffffffffffffffffffffffffffffffffffffff16815260200190815260200160002060009054906101000a900460ff165b610e8f576040517f08c379a0000000000000000000000000000000000000000000000000000000008152600401610e86906137b2565b60405180910390fd5b6060600760003373ffffffffffffffffffffffffffffffffffffffff1673ffffffffffffffffffffffffffffffffffffffff168152602001908152602001600020805480602002602001604051908101604052809291908181526020018280548015610f5057602002820191906000526020600020905b8160009054906101000a900473ffffffffffffffffffffffffffffffffffffffff1673ffffffffffffffffffffffffffffffffffffffff1681526020019060010190808311610f06575b50505050509050600080905060008090505b8251811015610fc4578373ffffffffffffffffffffffffffffffffffffffff16838281518110610f8e57fe5b602002602001015173ffffffffffffffffffffffffffffffffffffffff161415610fb757600191505b8080600101915050610f62565b5060001515811515141561111957600760003373ffffffffffffffffffffffffffffffffffffffff1673ffffffffffffffffffffffffffffffffffffffff1681526020019081526020016000208390806001815401808255809150509060018203906000526020600020016000909192909190916101000a81548173ffffffffffffffffffffffffffffffffffffffff021916908373ffffffffffffffffffffffffffffffffffffffff16021790555050600960008473ffffffffffffffffffffffffffffffffffffffff1673ffffffffffffffffffffffffffffffffffffffff1681526020019081526020016000203390806001815401808255809150509060018203906000526020600020016000909192909190916101000a81548173ffffffffffffffffffffffffffffffffffffffff021916908373ffffffffffffffffffffffffffffffffffffffff160217905550505b505050565b600560003373ffffffffffffffffffffffffffffffffffffffff1673ffffffffffffffffffffffffffffffffffffffff16815260200190815260200160002060009054906101000a900460ff166111aa576040517f08c379a00000000000000000000000000000000000000000000000000000000081526004016111a190613712565b60405180910390fd5b6060600760003373ffffffffffffffffffffffffffffffffffffffff1673ffffffffffffffffffffffffffffffffffffffff16815260200190815260200160002080548060200260200160405190810160405280929190818152602001828054801561126b57602002820191906000526020600020905b8160009054906101000a900473ffffffffffffffffffffffffffffffffffffffff1673ffffffffffffffffffffffffffffffffffffffff1681526020019060010190808311611221575b50505050509050600080905060008090505b82518110156112e5578373ffffffffffffffffffffffffffffffffffffffff168382815181106112a957fe5b602002602001015173ffffffffffffffffffffffffffffffffffffffff1614156112d8576001810191506112e5565b808060010191505061127d565b5060008111156114bc57600760003373ffffffffffffffffffffffffffffffffffffffff1673ffffffffffffffffffffffffffffffffffffffff1681526020019081526020016000206001600760003373ffffffffffffffffffffffffffffffffffffffff1673ffffffffffffffffffffffffffffffffffffffff16815260200190815260200160002080549050038154811061137e57fe5b9060005260206000200160009054906101000a900473ffffffffffffffffffffffffffffffffffffffff16600760003373ffffffffffffffffffffffffffffffffffffffff1673ffffffffffffffffffffffffffffffffffffffff16815260200190815260200160002060018303815481106113f657fe5b9060005260206000200160006101000a81548173ffffffffffffffffffffffffffffffffffffffff021916908373ffffffffffffffffffffffffffffffffffffffff160217905550600760003373ffffffffffffffffffffffffffffffffffffffff1673ffffffffffffffffffffffffffffffffffffffff16815260200190815260200160002080548061148657fe5b6001900381819060005260206000200160006101000a81549073ffffffffffffffffffffffffffffffffffffffff021916905590555b60008111156117da576060600960008573ffffffffffffffffffffffffffffffffffffffff1673ffffffffffffffffffffffffffffffffffffffff16815260200190815260200160002080548060200260200160405190810160405280929190818152602001828054801561158657602002820191906000526020600020905b8160009054906101000a900473ffffffffffffffffffffffffffffffffffffffff1673ffffffffffffffffffffffffffffffffffffffff168152602001906001019080831161153c575b50505050509050600080905060008090505b8251811015611600573373ffffffffffffffffffffffffffffffffffffffff168382815181106115c457fe5b602002602001015173ffffffffffffffffffffffffffffffffffffffff1614156115f357600181019150611600565b8080600101915050611598565b5060008111156117d757600960008673ffffffffffffffffffffffffffffffffffffffff1673ffffffffffffffffffffffffffffffffffffffff1681526020019081526020016000206001600960008873ffffffffffffffffffffffffffffffffffffffff1673ffffffffffffffffffffffffffffffffffffffff16815260200190815260200160002080549050038154811061169957fe5b9060005260206000200160009054906101000a900473ffffffffffffffffffffffffffffffffffffffff16600960008773ffffffffffffffffffffffffffffffffffffffff1673ffffffffffffffffffffffffffffffffffffffff168152602001908152602001600020600183038154811061171157fe5b9060005260206000200160006101000a81548173ffffffffffffffffffffffffffffffffffffffff021916908373ffffffffffffffffffffffffffffffffffffffff160217905550600960008673ffffffffffffffffffffffffffffffffffffffff1673ffffffffffffffffffffffffffffffffffffffff1681526020019081526020016000208054806117a157fe5b6001900381819060005260206000200160006101000a81549073ffffffffffffffffffffffffffffffffffffffff021916905590555b50505b505050565b600460003373ffffffffffffffffffffffffffffffffffffffff1673ffffffffffffffffffffffffffffffffffffffff16815260200190815260200160002060009054906101000a900460ff161580156118835750600560003373ffffffffffffffffffffffffffffffffffffffff1673ffffffffffffffffffffffffffffffffffffffff16815260200190815260200160002060009054906101000a900460ff16155b80156118d95750600660003373ffffffffffffffffffffffffffffffffffffffff1673ffffffffffffffffffffffffffffffffffffffff16815260200190815260200160002060009054906101000a900460ff16155b1561199d576001600560003373ffffffffffffffffffffffffffffffffffffffff1673ffffffffffffffffffffffffffffffffffffffff16815260200190815260200160002060006101000a81548160ff02191690831515021790555060023390806001815401808255809150509060018203906000526020600020016000909192909190916101000a81548173ffffffffffffffffffffffffffffffffffffffff021916908373ffffffffffffffffffffffffffffffffffffffff160217905550505b565b60056020528060005260406000206000915054906101000a900460ff1681565b600281815481106119cc57fe5b906000526020600020016000915054906101000a900473ffffffffffffffffffffffffffffffffffffffff1681565b60066020528060005260406000206000915054906101000a900460ff1681565b60603373ffffffffffffffffffffffffffffffffffffffff168273ffffffffffffffffffffffffffffffffffffffff161415611d3357600860008373ffffffffffffffffffffffffffffffffffffffff1673ffffffffffffffffffffffffffffffffffffffff168152602001908152602001600020805480602002602001604051908101604052809291908181526020016000905b82821015611d2857838290600052602060002090600502016040518060a00160405290816000820160009054906101000a900473ffffffffffffffffffffffffffffffffffffffff1673ffffffffffffffffffffffffffffffffffffffff1673ffffffffffffffffffffffffffffffffffffffff1681526020016001820160009054906101000a900473ffffffffffffffffffffffffffffffffffffffff1673ffffffffffffffffffffffffffffffffffffffff1673ffffffffffffffffffffffffffffffffffffffff1681526020016002820160009054906101000a900473ffffffffffffffffffffffffffffffffffffffff1673ffffffffffffffffffffffffffffffffffffffff1673ffffffffffffffffffffffffffffffffffffffff168152602001600382018054600181600116156101000203166002900480601f016020809104026020016040519081016040528092919081815260200182805460018160011615610100020316600290048015611c6e5780601f10611c4357610100808354040283529160200191611c6e565b820191906000526020600020905b815481529060010190602001808311611c5157829003601f168201915b50505050508152602001600482018054600181600116156101000203166002900480601f016020809104026020016040519081016040528092919081815260200182805460018160011615610100020316600290048015611d105780601f10611ce557610100808354040283529160200191611d10565b820191906000526020600020905b815481529060010190602001808311611cf357829003601f168201915b50505050508152505081526020019060010190611ab0565b50505050905061222b565b600460003373ffffffffffffffffffffffffffffffffffffffff1673ffffffffffffffffffffffffffffffffffffffff16815260200190815260200160002060009054906101000a900460ff1680611dd45750600660003373ffffffffffffffffffffffffffffffffffffffff1673ffffffffffffffffffffffffffffffffffffffff16815260200190815260200160002060009054906101000a900460ff165b611e13576040517f08c379a0000000000000000000000000000000000000000000000000000000008152600401611e0a90613732565b60405180910390fd5b6060600760008473ffffffffffffffffffffffffffffffffffffffff1673ffffffffffffffffffffffffffffffffffffffff168152602001908152602001600020805480602002602001604051908101604052809291908181526020018280548015611ed457602002820191906000526020600020905b8160009054906101000a900473ffffffffffffffffffffffffffffffffffffffff1673ffffffffffffffffffffffffffffffffffffffff1681526020019060010190808311611e8a575b5050505050905060008090505b8151811015612222573373ffffffffffffffffffffffffffffffffffffffff16828281518110611f0d57fe5b602002602001015173ffffffffffffffffffffffffffffffffffffffff16141561221557600860008573ffffffffffffffffffffffffffffffffffffffff1673ffffffffffffffffffffffffffffffffffffffff168152602001908152602001600020805480602002602001604051908101604052809291908181526020016000905b8282101561220857838290600052602060002090600502016040518060a00160405290816000820160009054906101000a900473ffffffffffffffffffffffffffffffffffffffff1673ffffffffffffffffffffffffffffffffffffffff1673ffffffffffffffffffffffffffffffffffffffff1681526020016001820160009054906101000a900473ffffffffffffffffffffffffffffffffffffffff1673ffffffffffffffffffffffffffffffffffffffff1673ffffffffffffffffffffffffffffffffffffffff1681526020016002820160009054906101000a900473ffffffffffffffffffffffffffffffffffffffff1673ffffffffffffffffffffffffffffffffffffffff1673ffffffffffffffffffffffffffffffffffffffff168152602001600382018054600181600116156101000203166002900480601f01602080910402602001604051908101604052809291908181526020018280546001816001161561010002031660029004801561214e5780601f106121235761010080835404028352916020019161214e565b820191906000526020600020905b81548152906001019060200180831161213157829003601f168201915b50505050508152602001600482018054600181600116156101000203166002900480601f0160208091040260200160405190810160405280929190818152602001828054600181600116156101000203166002900480156121f05780601f106121c5576101008083540402835291602001916121f0565b820191906000526020600020905b8154815290600101906020018083116121d357829003601f168201915b50505050508152505081526020019060010190611f90565b505050509250505061222b565b8080600101915050611ee1565b50606080925050505b919050565b6060600460003373ffffffffffffffffffffffffffffffffffffffff1673ffffffffffffffffffffffffffffffffffffffff16815260200190815260200160002060009054906101000a900460ff16806122d35750600660003373ffffffffffffffffffffffffffffffffffffffff1673ffffffffffffffffffffffffffffffffffffffff16815260200190815260200160002060009054906101000a900460ff165b612312576040517f08c379a000000000000000000000000000000000000000000000000000000000815260040161230990613732565b60405180910390fd5b606080600960003373ffffffffffffffffffffffffffffffffffffffff1673ffffffffffffffffffffffffffffffffffffffff1681526020019081526020016000208054806020026020016040519081016040528092919081815260200182805480156123d457602002820191906000526020600020905b8160009054906101000a900473ffffffffffffffffffffffffffffffffffffffff1673ffffffffffffffffffffffffffffffffffffffff168152602001906001019080831161238a575b5050505050905060008090505b81518110156127c4576060600860008484815181106123fc57fe5b602002602001015173ffffffffffffffffffffffffffffffffffffffff1673ffffffffffffffffffffffffffffffffffffffff168152602001908152602001600020805480602002602001604051908101604052809291908181526020016000905b828210156126d657838290600052602060002090600502016040518060a00160405290816000820160009054906101000a900473ffffffffffffffffffffffffffffffffffffffff1673ffffffffffffffffffffffffffffffffffffffff1673ffffffffffffffffffffffffffffffffffffffff1681526020016001820160009054906101000a900473ffffffffffffffffffffffffffffffffffffffff1673ffffffffffffffffffffffffffffffffffffffff1673ffffffffffffffffffffffffffffffffffffffff1681526020016002820160009054906101000a900473ffffffffffffffffffffffffffffffffffffffff1673ffffffffffffffffffffffffffffffffffffffff1673ffffffffffffffffffffffffffffffffffffffff168152602001600382018054600181600116156101000203166002900480601f01602080910402602001604051908101604052809291908181526020018280546001816001161561010002031660029004801561261c5780601f106125f15761010080835404028352916020019161261c565b820191906000526020600020905b8154815290600101906020018083116125ff57829003601f168201915b50505050508152602001600482018054600181600116156101000203166002900480601f0160208091040260200160405190810160405280929190818152602001828054600181600116156101000203166002900480156126be5780601f10612693576101008083540402835291602001916126be565b820191906000526020600020905b8154815290600101906020018083116126a157829003601f168201915b5050505050815250508152602001906001019061245e565b5050505090506060849050815181510160405190808252806020026020018201604052801561271f57816020015b61270c612f19565b8152602001906001900390816127045790505b50945060008090505b81518110156127695781818151811061273d57fe5b602002602001015186828151811061275157fe5b60200260200101819052508080600101915050612728565b5060008090505b82518110156127b45782818151811061278557fe5b602002602001015186835183018151811061279c57fe5b60200260200101819052508080600101915050612770565b50505080806001019150506123e1565b50819250505090565b600181815481106127da57fe5b90600052602060002090600302016000915090508060000160009054906101000a900473ffffffffffffffffffffffffffffffffffffffff1690806001018054600181600116156101000203166002900480601f0160208091040260200160405190810160405280929190818152602001828054600181600116156101000203166002900480156128ac5780601f10612881576101008083540402835291602001916128ac565b820191906000526020600020905b81548152906001019060200180831161288f57829003601f168201915b505050505090806002018054600181600116156101000203166002900480601f01602080910402602001604051908101604052809291908181526020018280546001816001161561010002031660029004801561294a5780601f1061291f5761010080835404028352916020019161294a565b820191906000526020600020905b81548152906001019060200180831161292d57829003601f168201915b5050505050905083565b600460003373ffffffffffffffffffffffffffffffffffffffff1673ffffffffffffffffffffffffffffffffffffffff16815260200190815260200160002060009054906101000a900460ff161580156129f85750600560003373ffffffffffffffffffffffffffffffffffffffff1673ffffffffffffffffffffffffffffffffffffffff16815260200190815260200160002060009054906101000a900460ff16155b8015612a4e5750600660003373ffffffffffffffffffffffffffffffffffffffff1673ffffffffffffffffffffffffffffffffffffffff16815260200190815260200160002060009054906101000a900460ff16155b15612b8e576001600460003373ffffffffffffffffffffffffffffffffffffffff1673ffffffffffffffffffffffffffffffffffffffff16815260200190815260200160002060006101000a81548160ff021916908315150217905550600160405180606001604052803373ffffffffffffffffffffffffffffffffffffffff168152602001848152602001838152509080600181540180825580915050906001820390600052602060002090600302016000909192909190915060008201518160000160006101000a81548173ffffffffffffffffffffffffffffffffffffffff021916908373ffffffffffffffffffffffffffffffffffffffff1602179055506020820151816001019080519060200190612b6c929190612e99565b506040820151816002019080519060200190612b89929190612e99565b505050505b5050565b60603373ffffffffffffffffffffffffffffffffffffffff168273ffffffffffffffffffffffffffffffffffffffff161415612c9357600760008373ffffffffffffffffffffffffffffffffffffffff1673ffffffffffffffffffffffffffffffffffffffff168152602001908152602001600020805480602002602001604051908101604052809291908181526020018280548015612c8757602002820191906000526020600020905b8160009054906101000a900473ffffffffffffffffffffffffffffffffffffffff1673ffffffffffffffffffffffffffffffffffffffff1681526020019060010190808311612c3d575b50505050509050612e94565b6060600760008473ffffffffffffffffffffffffffffffffffffffff1673ffffffffffffffffffffffffffffffffffffffff168152602001908152602001600020805480602002602001604051908101604052809291908181526020018280548015612d5457602002820191906000526020600020905b8160009054906101000a900473ffffffffffffffffffffffffffffffffffffffff1673ffffffffffffffffffffffffffffffffffffffff1681526020019060010190808311612d0a575b5050505050905060008090505b8151811015612e8b573373ffffffffffffffffffffffffffffffffffffffff16828281518110612d8d57fe5b602002602001015173ffffffffffffffffffffffffffffffffffffffff161415612e7e57600760008573ffffffffffffffffffffffffffffffffffffffff1673ffffffffffffffffffffffffffffffffffffffff168152602001908152602001600020805480602002602001604051908101604052809291908181526020018280548015612e7057602002820191906000526020600020905b8160009054906101000a900473ffffffffffffffffffffffffffffffffffffffff1673ffffffffffffffffffffffffffffffffffffffff1681526020019060010190808311612e26575b505050505092505050612e94565b8080600101915050612d61565b50606080925050505b919050565b828054600181600116156101000203166002900490600052602060002090601f016020900481019282601f10612eda57805160ff1916838001178555612f08565b82800160010185558215612f08579182015b82811115612f07578251825591602001919060010190612eec565b5b509050612f159190612f8a565b5090565b6040518060a00160405280600073ffffffffffffffffffffffffffffffffffffffff168152602001600073ffffffffffffffffffffffffffffffffffffffff168152602001600073ffffffffffffffffffffffffffffffffffffffff16815260200160608152602001606081525090565b612fac91905b80821115612fa8576000816000905550600101612f90565b5090565b90565b600081359050612fbe816139a5565b92915050565b600082601f830112612fd557600080fd5b8135612fe8612fe38261383f565b613812565b9150808252602083016020830185838301111561300457600080fd5b61300f838284613952565b50505092915050565b600081359050613027816139bc565b92915050565b60006020828403121561303f57600080fd5b600061304d84828501612faf565b91505092915050565b6000806000806080858703121561306c57600080fd5b600061307a87828801612faf565b945050602061308b87828801612faf565b935050604085013567ffffffffffffffff8111156130a857600080fd5b6130b487828801612fc4565b925050606085013567ffffffffffffffff8111156130d157600080fd5b6130dd87828801612fc4565b91505092959194509250565b600080604083850312156130fc57600080fd5b600083013567ffffffffffffffff81111561311657600080fd5b61312285828601612fc4565b925050602083013567ffffffffffffffff81111561313f57600080fd5b61314b85828601612fc4565b9150509250929050565b60006020828403121561316757600080fd5b600061317584828501613018565b91505092915050565b600061318a83836131aa565b60208301905092915050565b60006131a283836135b4565b905092915050565b6131b38161390a565b82525050565b6131c28161390a565b82525050565b60006131d38261388b565b6131dd81856138c6565b93506131e88361386b565b8060005b83811015613219578151613200888261317e565b975061320b836138ac565b9250506001810190506131ec565b5085935050505092915050565b600061323182613896565b61323b81856138d7565b93508360208202850161324d8561387b565b8060005b85811015613289578484038952815161326a8582613196565b9450613275836138b9565b925060208a01995050600181019050613251565b50829750879550505050505092915050565b6132a48161391c565b82525050565b60006132b5826138a1565b6132bf81856138e8565b93506132cf818560208601613961565b6132d881613994565b840191505092915050565b60006132ee826138a1565b6132f881856138f9565b9350613308818560208601613961565b61331181613994565b840191505092915050565b60006133296016836138f9565b91507f63616c6c6572206d7573742062652070617469656e74000000000000000000006000830152602082019050919050565b60006133696021836138f9565b91507f63616c6c6572206d75737420626520696e737469747574696f6e2f646f63746f60008301527f72000000000000000000000000000000000000000000000000000000000000006020830152604082019050919050565b60006133cf6025836138f9565b91507f63616c6c6572206d75737420626520696e2070617469656e742061636365737360008301527f206c6973740000000000000000000000000000000000000000000000000000006020830152604082019050919050565b6000613435601a836138f9565b91507f63616c6c6572206d75737420626520696e737469747574696f6e0000000000006000830152602082019050919050565b60006134756015836138f9565b91507f70617469656e74206d7573742062652076616c696400000000000000000000006000830152602082019050919050565b60006134b56026836138f9565b91507f63616e206f6e6c79207368617265207769746820696e737469747574696f6e2f60008301527f646f63746f7200000000000000000000000000000000000000000000000000006020830152604082019050919050565b600061351b6014836138f9565b91507f646f63746f72206d7573742062652076616c69640000000000000000000000006000830152602082019050919050565b600061355b602c836138f9565b91507f7370656369666965642061646472657373206d75737420626520696e7374697460008301527f7574696f6e2f646f63746f7200000000000000000000000000000000000000006020830152604082019050919050565b600060a0830160008301516135cc60008601826131aa565b5060208301516135df60208601826131aa565b5060408301516135f260408601826131aa565b506060830151848203606086015261360a82826132aa565b9150506080830151848203608086015261362482826132aa565b9150508091505092915050565b600060208201905061364660008301846131b9565b92915050565b600060608201905061366160008301866131b9565b818103602083015261367381856132e3565b9050818103604083015261368781846132e3565b9050949350505050565b600060208201905081810360008301526136ab81846131c8565b905092915050565b600060208201905081810360008301526136cd8184613226565b905092915050565b60006020820190506136ea600083018461329b565b92915050565b6000602082019050818103600083015261370a81846132e3565b905092915050565b6000602082019050818103600083015261372b8161331c565b9050919050565b6000602082019050818103600083015261374b8161335c565b9050919050565b6000602082019050818103600083015261376b816133c2565b9050919050565b6000602082019050818103600083015261378b81613428565b9050919050565b600060208201905081810360008301526137ab81613468565b9050919050565b600060208201905081810360008301526137cb816134a8565b9050919050565b600060208201905081810360008301526137eb8161350e565b9050919050565b6000602082019050818103600083015261380b8161354e565b9050919050565b6000604051905081810181811067ffffffffffffffff8211171561383557600080fd5b8060405250919050565b600067ffffffffffffffff82111561385657600080fd5b601f19601f8301169050602081019050919050565b6000819050602082019050919050565b6000819050602082019050919050565b600081519050919050565b600081519050919050565b600081519050919050565b6000602082019050919050565b6000602082019050919050565b600082825260208201905092915050565b600082825260208201905092915050565b600082825260208201905092915050565b600082825260208201905092915050565b600061391582613928565b9050919050565b60008115159050919050565b600073ffffffffffffffffffffffffffffffffffffffff82169050919050565b6000819050919050565b82818337600083830152505050565b60005b8381101561397f578082015181840152602081019050613964565b8381111561398e576000848401525b50505050565b6000601f19601f8301169050919050565b6139ae8161390a565b81146139b957600080fd5b50565b6139c581613948565b81146139d057600080fd5b5056fea365627a7a72315820f7798e4fce43e26eea2b17d22d33ddfeba60f331b92df96253e4f008b6c8efab6c6578706572696d656e74616cf564736f6c63430005100040",
  "source": "pragma solidity >=0.4.21 <0.6.0;\npragma experimental ABIEncoderV2;\n\ncontract HealthBlock {\n    struct Institution {\n        address institutionAddress;\n        string name;\n        string link;\n    }\n\n    struct Record {\n        address institution;\n        address doctor;\n        address patient;\n        string timestamp;\n        string link;\n    }\n\n    string public name = \"HealthBlock\";\n    Institution[] public institutions;\n    address[] public patients;\n    address[] public doctors;\n    mapping(address => bool) public isInstitution;\n    mapping(address => bool) public isPatient;\n    mapping(address => bool) public isDoctor;\n    mapping(address => address[]) private accessList;\n    mapping(address => Record[]) private records;\n    mapping(address => address[]) private entityHasAccessTo;\n\n    // Register patient\n    function registerPatient() public {\n        // Add user to patients array if not an institution/doctor or existing patient\n        if (!isInstitution[msg.sender] && !isPatient[msg.sender] && !isDoctor[msg.sender]) {\n            isPatient[msg.sender] = true;\n            patients.push(msg.sender);\n        }\n    }\n\n    // Register institution\n    function registerInstitution(string memory _name, string memory link) public {\n        // Add user to institutions array if not a patient/doctor or existing institution\n        if (!isInstitution[msg.sender] && !isPatient[msg.sender] && !isDoctor[msg.sender]) {\n            isInstitution[msg.sender] = true;\n            institutions.push(Institution({institutionAddress: msg.sender, name: _name, link: link}));\n        }\n    }\n\n    // Register doctor\n    function registerDoctor() public {\n        // Add user to doctors array if not an institution/patient or existing doctor\n        if (!isInstitution[msg.sender] && !isPatient[msg.sender] && !isDoctor[msg.sender]) {\n            isDoctor[msg.sender] = true;\n            doctors.push(msg.sender);\n        }\n    }\n\n    // Add medical record\n    function addRecord(address patient, address doctor, string memory timestamp, string memory link) public {\n        // Only institutions can call this function\n        require(isInstitution[msg.sender], \"caller must be institution\");\n\n        // Patient must be valid\n        require(isPatient[patient], \"patient must be valid\");\n\n        // Get patient access list\n        address[] memory patientAccList = accessList[patient];\n\n        // Caller must be in patient access list\n        for (uint i = 0; i < patientAccList.length; i++) {\n            if (patientAccList[i] == msg.sender) {\n                // If they exist, doctor must be valid\n                if (doctor != address(0)) {\n                    require(isDoctor[doctor], \"doctor must be valid\");\n                }\n\n                // Add record to patient records array\n                records[patient].push(Record({institution: msg.sender, doctor: doctor, \n                                    patient: patient, timestamp: timestamp, link: link}));\n                \n                return;\n            }\n        }\n\n        require(false, \"caller must be in patient access list\");\n    }\n\n    // Share patient records with institution/doctor\n    function shareRecords(address entity) public {\n        // Only patients can call this function\n        require(isPatient[msg.sender], \"caller must be patient\");\n\n        // Can only share record with institution/doctor\n        require(isInstitution[entity] || isDoctor[entity], \"can only share with institution/doctor\");\n\n        // Add entity to user access list *if* not already in list\n        address[] memory patientAccList = accessList[msg.sender];\n        bool inList = false;\n\n        for (uint i = 0; i < patientAccList.length; i++) {\n            if (patientAccList[i] == entity) {\n                inList = true;\n            }\n        }\n\n        if (inList == false) {\n            accessList[msg.sender].push(entity);\n            entityHasAccessTo[entity].push(msg.sender);\n        }\n    }\n\n    // Unshare records\n    function unshareRecords(address entity) public {\n        // Only patients can call this function\n        require(isPatient[msg.sender], \"caller must be patient\");\n\n        // Remove specified entity from access list\n        address[] memory patientAccList = accessList[msg.sender];\n\n        uint entityIndex = 0;\n        for (uint i = 0; i < patientAccList.length; i++) {\n            if (patientAccList[i] == entity) {\n                entityIndex = i + 1;\n                break;\n            }\n        }\n\n        if (entityIndex > 0) {\n            accessList[msg.sender][entityIndex - 1] = accessList[msg.sender][accessList[msg.sender].length - 1];\n            accessList[msg.sender].pop();\n        }\n\n        // Remove patient from entity accessable patients\n        if (entityIndex > 0) {\n            address[] memory entityAccess = entityHasAccessTo[entity];\n            uint patientIndex = 0;\n\n            for (uint i = 0; i < entityAccess.length; i++) {\n                if (entityAccess[i] == msg.sender) {\n                    patientIndex = i + 1;\n                    break;\n                }\n            }\n\n            if (patientIndex > 0) {\n                entityHasAccessTo[entity][patientIndex - 1] = entityHasAccessTo[entity][entityHasAccessTo[entity].length - 1];\n                entityHasAccessTo[entity].pop();\n            }\n        }\n    }\n\n    // Returns access list for specified patient\n    function getPatientAccessList(address patient) public view returns(address[] memory) {\n        // If caller is specified patient return access list\n        if (patient == msg.sender) {\n            return accessList[patient];\n        }\n\n        // Get patient access list\n        address[] memory patientAccList = accessList[patient];\n\n        // If caller is in specified patient access list return access list\n        for (uint i = 0; i < patientAccList.length; i++) {\n            if (patientAccList[i] == msg.sender) {\n                return accessList[patient];\n            }\n        }\n\n        // If caller is not specified patient or does not have access to \n        // that patient list then return nothing\n        address[] memory emptyReturn; \n        return emptyReturn;\n    }\n\n    // Returns patients to which institution/doctor has access\n    function getAccessablePatients(address entity) public view returns(address[] memory) {\n        // Requires specified address to be registered patient\n        require(isInstitution[entity] || isDoctor[entity], \"specified address must be institution/doctor\");\n\n        return entityHasAccessTo[entity];\n    }\n\n    // Return patient records if caller has access\n    function getRecords(address patient) public view returns(Record[] memory){\n        // If caller is specified patient return access list\n        if (patient == msg.sender) {\n            return records[patient];\n        }\n\n        // Only institution and doctors can call this function\n        require(isInstitution[msg.sender] || isDoctor[msg.sender], \"caller must be institution/doctor\");\n\n        // Get patient access list\n        address[] memory patientAccList = accessList[patient];\n\n        // Caller must be in patient access list\n        for (uint i = 0; i < patientAccList.length; i++) {\n            if (patientAccList[i] == msg.sender) {\n                return records[patient];\n            }\n        }\n\n        // If caller not in patient access list, return empty list\n        Record[] memory emptyReturn; \n        return emptyReturn;\n    }\n\n    // Return all patient records to which caller has access !!! Costs a lot of gas and should only be used for debugging\n    function getAllRecords() public view returns(Record[] memory){\n        // Only institution and doctors can call this function\n        require(isInstitution[msg.sender] || isDoctor[msg.sender], \"caller must be institution/doctor\");\n\n        // Array containing all records\n        Record[] memory retRecords;\n        address[] memory entityAccess = entityHasAccessTo[msg.sender];\n\n        for (uint i = 0; i < entityAccess.length; i++) {\n            Record[] memory patientRecords = records[entityAccess[i]];\n            Record[] memory auxRecords = retRecords;\n\n            retRecords = new Record[](auxRecords.length + patientRecords.length);\n\n            for (uint j = 0; j < auxRecords.length; j++) {\n                retRecords[j] = auxRecords[j];\n            }\n\n            for (uint j = 0; j < patientRecords.length; j++) {\n                retRecords[j + auxRecords.length] = patientRecords[j];\n            }\n        }\n\n        return retRecords;\n    }\n}",
  "sourcePath": "/home/cosmin/Projects/Licenta/HealthBlock/src/contracts/HealthBlock.sol",
  "compiler": {
    "name": "solc",
    "version": "0.5.16+commit.9c3226ce.Emscripten.clang"
  },
  "schemaVersion": "3.2.3",
  "updatedAt": "2022-06-10T12:29:17.620Z",
  "networkType": "ethereum",
  "devdoc": {
    "methods": {}
  },
  "userdoc": {
    "methods": {}
  }
}